{
  "address": "0x39C0b0ec96e7710D752f54f1fc309BC5Fec4F3d3",
  "abi": [
    {
      "inputs": [
        {
          "internalType": "address",
          "name": "_address",
          "type": "address"
        }
      ],
      "stateMutability": "nonpayable",
      "type": "constructor"
    },
    {
      "anonymous": false,
      "inputs": [
        {
          "indexed": true,
          "internalType": "address",
          "name": "owner",
          "type": "address"
        },
        {
          "indexed": true,
          "internalType": "address",
          "name": "approved",
          "type": "address"
        },
        {
          "indexed": true,
          "internalType": "uint256",
          "name": "tokenId",
          "type": "uint256"
        }
      ],
      "name": "Approval",
      "type": "event"
    },
    {
      "anonymous": false,
      "inputs": [
        {
          "indexed": true,
          "internalType": "address",
          "name": "owner",
          "type": "address"
        },
        {
          "indexed": true,
          "internalType": "address",
          "name": "operator",
          "type": "address"
        },
        {
          "indexed": false,
          "internalType": "bool",
          "name": "approved",
          "type": "bool"
        }
      ],
      "name": "ApprovalForAll",
      "type": "event"
    },
    {
      "anonymous": false,
      "inputs": [
        {
          "indexed": true,
          "internalType": "address",
          "name": "previousOwner",
          "type": "address"
        },
        {
          "indexed": true,
          "internalType": "address",
          "name": "newOwner",
          "type": "address"
        }
      ],
      "name": "OwnershipTransferred",
      "type": "event"
    },
    {
      "anonymous": false,
      "inputs": [
        {
          "indexed": true,
          "internalType": "address",
          "name": "from",
          "type": "address"
        },
        {
          "indexed": true,
          "internalType": "address",
          "name": "to",
          "type": "address"
        },
        {
          "indexed": true,
          "internalType": "uint256",
          "name": "tokenId",
          "type": "uint256"
        }
      ],
      "name": "Transfer",
      "type": "event"
    },
    {
      "inputs": [
        {
          "internalType": "address",
          "name": "to",
          "type": "address"
        },
        {
          "internalType": "uint256",
          "name": "tokenId",
          "type": "uint256"
        }
      ],
      "name": "approve",
      "outputs": [],
      "stateMutability": "nonpayable",
      "type": "function"
    },
    {
      "inputs": [
        {
          "internalType": "address",
          "name": "owner",
          "type": "address"
        }
      ],
      "name": "balanceOf",
      "outputs": [
        {
          "internalType": "uint256",
          "name": "",
          "type": "uint256"
        }
      ],
      "stateMutability": "view",
      "type": "function"
    },
    {
      "inputs": [
        {
          "internalType": "bytes",
          "name": "",
          "type": "bytes"
        }
      ],
      "name": "checkUpkeep",
      "outputs": [
        {
          "internalType": "bool",
          "name": "upkeepNeeded",
          "type": "bool"
        },
        {
          "internalType": "bytes",
          "name": "",
          "type": "bytes"
        }
      ],
      "stateMutability": "view",
      "type": "function"
    },
    {
      "inputs": [],
      "name": "creditLogic",
      "outputs": [
        {
          "internalType": "contract CreditLogic",
          "name": "",
          "type": "address"
        }
      ],
      "stateMutability": "view",
      "type": "function"
    },
    {
      "inputs": [
        {
          "internalType": "uint256",
          "name": "tokenId",
          "type": "uint256"
        }
      ],
      "name": "getApproved",
      "outputs": [
        {
          "internalType": "address",
          "name": "",
          "type": "address"
        }
      ],
      "stateMutability": "view",
      "type": "function"
    },
    {
      "inputs": [],
      "name": "isAlreadyMinted",
      "outputs": [
        {
          "internalType": "bool",
          "name": "",
          "type": "bool"
        }
      ],
      "stateMutability": "view",
      "type": "function"
    },
    {
      "inputs": [
        {
          "internalType": "address",
          "name": "owner",
          "type": "address"
        },
        {
          "internalType": "address",
          "name": "operator",
          "type": "address"
        }
      ],
      "name": "isApprovedForAll",
      "outputs": [
        {
          "internalType": "bool",
          "name": "",
          "type": "bool"
        }
      ],
      "stateMutability": "view",
      "type": "function"
    },
    {
      "inputs": [],
      "name": "name",
      "outputs": [
        {
          "internalType": "string",
          "name": "",
          "type": "string"
        }
      ],
      "stateMutability": "view",
      "type": "function"
    },
    {
      "inputs": [],
      "name": "owner",
      "outputs": [
        {
          "internalType": "address",
          "name": "",
          "type": "address"
        }
      ],
      "stateMutability": "view",
      "type": "function"
    },
    {
      "inputs": [
        {
          "internalType": "uint256",
          "name": "tokenId",
          "type": "uint256"
        }
      ],
      "name": "ownerOf",
      "outputs": [
        {
          "internalType": "address",
          "name": "",
          "type": "address"
        }
      ],
      "stateMutability": "view",
      "type": "function"
    },
    {
      "inputs": [
        {
          "internalType": "bytes",
          "name": "",
          "type": "bytes"
        }
      ],
      "name": "performUpkeep",
      "outputs": [],
      "stateMutability": "nonpayable",
      "type": "function"
    },
    {
      "inputs": [],
      "name": "renounceOwnership",
      "outputs": [],
      "stateMutability": "nonpayable",
      "type": "function"
    },
    {
      "inputs": [],
      "name": "safeMint",
      "outputs": [
        {
          "internalType": "uint256",
          "name": "",
          "type": "uint256"
        }
      ],
      "stateMutability": "nonpayable",
      "type": "function"
    },
    {
      "inputs": [
        {
          "internalType": "address",
          "name": "from",
          "type": "address"
        },
        {
          "internalType": "address",
          "name": "to",
          "type": "address"
        },
        {
          "internalType": "uint256",
          "name": "tokenId",
          "type": "uint256"
        }
      ],
      "name": "safeTransferFrom",
      "outputs": [],
      "stateMutability": "nonpayable",
      "type": "function"
    },
    {
      "inputs": [
        {
          "internalType": "address",
          "name": "from",
          "type": "address"
        },
        {
          "internalType": "address",
          "name": "to",
          "type": "address"
        },
        {
          "internalType": "uint256",
          "name": "tokenId",
          "type": "uint256"
        },
        {
          "internalType": "bytes",
          "name": "data",
          "type": "bytes"
        }
      ],
      "name": "safeTransferFrom",
      "outputs": [],
      "stateMutability": "nonpayable",
      "type": "function"
    },
    {
      "inputs": [
        {
          "internalType": "address",
          "name": "operator",
          "type": "address"
        },
        {
          "internalType": "bool",
          "name": "approved",
          "type": "bool"
        }
      ],
      "name": "setApprovalForAll",
      "outputs": [],
      "stateMutability": "nonpayable",
      "type": "function"
    },
    {
      "inputs": [
        {
          "internalType": "bytes4",
          "name": "interfaceId",
          "type": "bytes4"
        }
      ],
      "name": "supportsInterface",
      "outputs": [
        {
          "internalType": "bool",
          "name": "",
          "type": "bool"
        }
      ],
      "stateMutability": "view",
      "type": "function"
    },
    {
      "inputs": [],
      "name": "symbol",
      "outputs": [
        {
          "internalType": "string",
          "name": "",
          "type": "string"
        }
      ],
      "stateMutability": "view",
      "type": "function"
    },
    {
      "inputs": [
        {
          "internalType": "uint256",
          "name": "tokenId",
          "type": "uint256"
        }
      ],
      "name": "tokenURI",
      "outputs": [
        {
          "internalType": "string",
          "name": "",
          "type": "string"
        }
      ],
      "stateMutability": "view",
      "type": "function"
    },
    {
      "inputs": [
        {
          "internalType": "address",
          "name": "from",
          "type": "address"
        },
        {
          "internalType": "address",
          "name": "to",
          "type": "address"
        },
        {
          "internalType": "uint256",
          "name": "tokenId",
          "type": "uint256"
        }
      ],
      "name": "transferFrom",
      "outputs": [],
      "stateMutability": "nonpayable",
      "type": "function"
    },
    {
      "inputs": [
        {
          "internalType": "address",
          "name": "newOwner",
          "type": "address"
        }
      ],
      "name": "transferOwnership",
      "outputs": [],
      "stateMutability": "nonpayable",
      "type": "function"
    }
  ],
  "transactionHash": "0x47f6b3c7f567f97bdfd36b35647c74db4b1e704697f38c60148a9b33638fb256",
  "args": [
    "0x623a957272c015Fe4A3646874cCe78864945EAe2"
  ],
  "numDeployments": 1,
  "solcInputHash": "5205c092fd4ffcf082497c6e27bb8f53",
  "bytecode": "0x608060405260646009556040518060400160405280600781526020017f2366646666303000000000000000000000000000000000000000000000000000815250600a90816200004f9190620004cc565b503480156200005d57600080fd5b50604051620047383803806200473883398181016040528101906200008391906200061d565b6040518060400160405280601281526020017f537461726b204372656469742053636f726500000000000000000000000000008152506040518060400160405280600381526020017f53435300000000000000000000000000000000000000000000000000000000008152508160009081620001009190620004cc565b508060019081620001129190620004cc565b50505062000135620001296200018460201b60201c565b6200018c60201b60201c565b80600d60006101000a81548173ffffffffffffffffffffffffffffffffffffffff021916908373ffffffffffffffffffffffffffffffffffffffff16021790555042600b81905550506200064f565b600033905090565b6000600760009054906101000a900473ffffffffffffffffffffffffffffffffffffffff16905081600760006101000a81548173ffffffffffffffffffffffffffffffffffffffff021916908373ffffffffffffffffffffffffffffffffffffffff1602179055508173ffffffffffffffffffffffffffffffffffffffff168173ffffffffffffffffffffffffffffffffffffffff167f8be0079c531659141344cd1fd0a4f28419497f9722a3daafe3b4186f6b6457e060405160405180910390a35050565b600081519050919050565b7f4e487b7100000000000000000000000000000000000000000000000000000000600052604160045260246000fd5b7f4e487b7100000000000000000000000000000000000000000000000000000000600052602260045260246000fd5b60006002820490506001821680620002d457607f821691505b602082108103620002ea57620002e96200028c565b5b50919050565b60008190508160005260206000209050919050565b60006020601f8301049050919050565b600082821b905092915050565b600060088302620003547fffffffffffffffffffffffffffffffffffffffffffffffffffffffffffffffff8262000315565b62000360868362000315565b95508019841693508086168417925050509392505050565b6000819050919050565b6000819050919050565b6000620003ad620003a7620003a18462000378565b62000382565b62000378565b9050919050565b6000819050919050565b620003c9836200038c565b620003e1620003d882620003b4565b84845462000322565b825550505050565b600090565b620003f8620003e9565b62000405818484620003be565b505050565b5b818110156200042d5762000421600082620003ee565b6001810190506200040b565b5050565b601f8211156200047c576200044681620002f0565b620004518462000305565b8101602085101562000461578190505b62000479620004708562000305565b8301826200040a565b50505b505050565b600082821c905092915050565b6000620004a16000198460080262000481565b1980831691505092915050565b6000620004bc83836200048e565b9150826002028217905092915050565b620004d78262000252565b67ffffffffffffffff811115620004f357620004f26200025d565b5b620004ff8254620002bb565b6200050c82828562000431565b600060209050601f8311600181146200054457600084156200052f578287015190505b6200053b8582620004ae565b865550620005ab565b601f1984166200055486620002f0565b60005b828110156200057e5784890151825560018201915060208501945060208101905062000557565b868310156200059e57848901516200059a601f8916826200048e565b8355505b6001600288020188555050505b505050505050565b600080fd5b600073ffffffffffffffffffffffffffffffffffffffff82169050919050565b6000620005e582620005b8565b9050919050565b620005f781620005d8565b81146200060357600080fd5b50565b6000815190506200061781620005ec565b92915050565b600060208284031215620006365762000635620005b3565b5b6000620006468482850162000606565b91505092915050565b6140d9806200065f6000396000f3fe608060405234801561001057600080fd5b50600436106101375760003560e01c80636e04ff0d116100b8578063a22cb4651161007c578063a22cb4651461033d578063b88d4fde14610359578063c87b56dd14610375578063cea9b30a146103a5578063e985e9c5146103c3578063f2fde38b146103f357610137565b80636e04ff0d1461029657806370a08231146102c7578063715018a6146102f75780638da5cb5b1461030157806395d89b411461031f57610137565b806342842e0e116100ff57806342842e0e146101f25780634585e33b1461020e57806356cad2751461022a5780636352211e146102485780636871ee401461027857610137565b806301ffc9a71461013c57806306fdde031461016c578063081812fc1461018a578063095ea7b3146101ba57806323b872dd146101d6575b600080fd5b6101566004803603810190610151919061246a565b61040f565b60405161016391906124b2565b60405180910390f35b6101746104f1565b6040516101819190612566565b60405180910390f35b6101a4600480360381019061019f91906125be565b610583565b6040516101b1919061262c565b60405180910390f35b6101d460048036038101906101cf9190612673565b6105c9565b005b6101f060048036038101906101eb91906126b3565b6106e0565b005b61020c600480360381019061020791906126b3565b610740565b005b6102286004803603810190610223919061276b565b610760565b005b610232610ab0565b60405161023f9190612817565b60405180910390f35b610262600480360381019061025d91906125be565b610ad6565b60405161026f919061262c565b60405180910390f35b610280610b87565b60405161028d9190612841565b60405180910390f35b6102b060048036038101906102ab919061298c565b610e24565b6040516102be929190612a2a565b60405180910390f35b6102e160048036038101906102dc9190612a5a565b610e7d565b6040516102ee9190612841565b60405180910390f35b6102ff610f34565b005b610309610f48565b604051610316919061262c565b60405180910390f35b610327610f72565b6040516103349190612566565b60405180910390f35b61035760048036038101906103529190612ab3565b611004565b005b610373600480360381019061036e9190612af3565b61101a565b005b61038f600480360381019061038a91906125be565b61107c565b60405161039c9190612566565b60405180910390f35b6103ad61118e565b6040516103ba91906124b2565b60405180910390f35b6103dd60048036038101906103d89190612b76565b611291565b6040516103ea91906124b2565b60405180910390f35b61040d60048036038101906104089190612a5a565b611325565b005b60007f80ac58cd000000000000000000000000000000000000000000000000000000007bffffffffffffffffffffffffffffffffffffffffffffffffffffffff1916827bffffffffffffffffffffffffffffffffffffffffffffffffffffffff191614806104da57507f5b5e139f000000000000000000000000000000000000000000000000000000007bffffffffffffffffffffffffffffffffffffffffffffffffffffffff1916827bffffffffffffffffffffffffffffffffffffffffffffffffffffffff1916145b806104ea57506104e9826113a8565b5b9050919050565b60606000805461050090612be5565b80601f016020809104026020016040519081016040528092919081815260200182805461052c90612be5565b80156105795780601f1061054e57610100808354040283529160200191610579565b820191906000526020600020905b81548152906001019060200180831161055c57829003601f168201915b5050505050905090565b600061058e82611412565b6004600083815260200190815260200160002060009054906101000a900473ffffffffffffffffffffffffffffffffffffffff169050919050565b60006105d482610ad6565b90508073ffffffffffffffffffffffffffffffffffffffff168373ffffffffffffffffffffffffffffffffffffffff1603610644576040517f08c379a000000000000000000000000000000000000000000000000000000000815260040161063b90612c88565b60405180910390fd5b8073ffffffffffffffffffffffffffffffffffffffff1661066361145d565b73ffffffffffffffffffffffffffffffffffffffff16148061069257506106918161068c61145d565b611291565b5b6106d1576040517f08c379a00000000000000000000000000000000000000000000000000000000081526004016106c890612d1a565b60405180910390fd5b6106db8383611465565b505050565b6106f16106eb61145d565b8261151e565b610730576040517f08c379a000000000000000000000000000000000000000000000000000000000815260040161072790612dac565b60405180910390fd5b61073b8383836115b3565b505050565b61075b8383836040518060200160405280600081525061101a565b505050565b600061077a60405180602001604052806000815250610e24565b509050806107bd576040517f08c379a00000000000000000000000000000000000000000000000000000000081526004016107b490612e18565b60405180910390fd5b6000600d60009054906101000a900473ffffffffffffffffffffffffffffffffffffffff1673ffffffffffffffffffffffffffffffffffffffff1663829268756040518163ffffffff1660e01b8152600401600060405180830381865afa15801561082c573d6000803e3d6000fd5b505050506040513d6000823e3d601f19601f820116820180604052508101906108559190612f10565b905060005b81518110156109b0576000600d60009054906101000a900473ffffffffffffffffffffffffffffffffffffffff1673ffffffffffffffffffffffffffffffffffffffff16636b27e9aa8484815181106108b6576108b5612f59565b5b6020026020010151600e60009054906101000a900473ffffffffffffffffffffffffffffffffffffffff166040518363ffffffff1660e01b81526004016108fe929190612f88565b61010060405180830381865afa15801561091c573d6000803e3d6000fd5b505050506040513d601f19601f8201168201806040525081019061094091906130aa565b90506000816080015111801561095d57508060a001518160c00151115b1561098157600a600960008282546109759190613107565b9250508190555061099c565b600a60096000828254610994919061313b565b925050819055505b5080806109a890613191565b91505061085a565b5060646009541015610a06576040518060400160405280600781526020017f2346463030303000000000000000000000000000000000000000000000000000815250600a9081610a00919061337b565b50610aa3565b61012c6009541115610a5c576040518060400160405280600781526020017f2330304646303000000000000000000000000000000000000000000000000000815250600a9081610a56919061337b565b50610aa2565b6040518060400160405280600781526020017f2366646666303000000000000000000000000000000000000000000000000000815250600a9081610aa0919061337b565b505b5b42600b8190555050505050565b600d60009054906101000a900473ffffffffffffffffffffffffffffffffffffffff1681565b6000806002600084815260200190815260200160002060009054906101000a900473ffffffffffffffffffffffffffffffffffffffff169050600073ffffffffffffffffffffffffffffffffffffffff168173ffffffffffffffffffffffffffffffffffffffff1603610b7e576040517f08c379a0000000000000000000000000000000000000000000000000000000008152600401610b7590613499565b60405180910390fd5b80915050919050565b600080600090505b600c80549050811015610cba5760003073ffffffffffffffffffffffffffffffffffffffff16636352211e600c8481548110610bce57610bcd612f59565b5b90600052602060002001546040518263ffffffff1660e01b8152600401610bf59190612841565b602060405180830381865afa158015610c12573d6000803e3d6000fd5b505050506040513d601f19601f82011682018060405250810190610c3691906134b9565b90503373ffffffffffffffffffffffffffffffffffffffff168173ffffffffffffffffffffffffffffffffffffffff1603610ca6576040517f08c379a0000000000000000000000000000000000000000000000000000000008152600401610c9d90613532565b60405180910390fd5b508080610cb290613191565b915050610b8f565b506000610cc76008611819565b9050600060405180610120016040528060f58152602001613f6f60f59139600a60405180610100016040528060d88152602001613e9760d89139610d0c600954611827565b6040518060400160405280601581526020017f3c2f747370616e3e3c2f746578743e3c2f7376673e0000000000000000000000815250604051602001610d56959493929190613611565b60405160208183030381529060405290506000610d7282611987565b604051602001610d829190613740565b6040516020818303038152906040529050610d9d3384611aff565b610da78382611b1d565b33600e60006101000a81548173ffffffffffffffffffffffffffffffffffffffff021916908373ffffffffffffffffffffffffffffffffffffffff160217905550600c839080600181540180825580915050600190039060005260206000200160009091909190915055610e1b6008611b8a565b82935050505090565b60006060622819a2600b5442610e3a9190613107565b119150816040518060400160405280600381526020017f307830000000000000000000000000000000000000000000000000000000000081525091509150915091565b60008073ffffffffffffffffffffffffffffffffffffffff168273ffffffffffffffffffffffffffffffffffffffff1603610eed576040517f08c379a0000000000000000000000000000000000000000000000000000000008152600401610ee4906137e3565b60405180910390fd5b600360008373ffffffffffffffffffffffffffffffffffffffff1673ffffffffffffffffffffffffffffffffffffffff168152602001908152602001600020549050919050565b610f3c611ba0565b610f466000611c1e565b565b6000600760009054906101000a900473ffffffffffffffffffffffffffffffffffffffff16905090565b606060018054610f8190612be5565b80601f0160208091040260200160405190810160405280929190818152602001828054610fad90612be5565b8015610ffa5780601f10610fcf57610100808354040283529160200191610ffa565b820191906000526020600020905b815481529060010190602001808311610fdd57829003601f168201915b5050505050905090565b61101661100f61145d565b8383611ce4565b5050565b61102b61102561145d565b8361151e565b61106a576040517f08c379a000000000000000000000000000000000000000000000000000000000815260040161106190612dac565b60405180910390fd5b61107684848484611e50565b50505050565b606061108782611412565b60006006600084815260200190815260200160002080546110a790612be5565b80601f01602080910402602001604051908101604052809291908181526020018280546110d390612be5565b80156111205780601f106110f557610100808354040283529160200191611120565b820191906000526020600020905b81548152906001019060200180831161110357829003601f168201915b505050505090506000611131611eac565b90506000815103611146578192505050611189565b60008251111561117b578082604051602001611163929190613803565b60405160208183030381529060405292505050611189565b61118484611ec3565b925050505b919050565b60008060005b600c805490508110156112895760003073ffffffffffffffffffffffffffffffffffffffff16636352211e600c84815481106111d3576111d2612f59565b5b90600052602060002001546040518263ffffffff1660e01b81526004016111fa9190612841565b602060405180830381865afa158015611217573d6000803e3d6000fd5b505050506040513d601f19601f8201168201806040525081019061123b91906134b9565b90503373ffffffffffffffffffffffffffffffffffffffff168173ffffffffffffffffffffffffffffffffffffffff160361127557600192505b50808061128190613191565b915050611194565b508091505090565b6000600560008473ffffffffffffffffffffffffffffffffffffffff1673ffffffffffffffffffffffffffffffffffffffff16815260200190815260200160002060008373ffffffffffffffffffffffffffffffffffffffff1673ffffffffffffffffffffffffffffffffffffffff16815260200190815260200160002060009054906101000a900460ff16905092915050565b61132d611ba0565b600073ffffffffffffffffffffffffffffffffffffffff168173ffffffffffffffffffffffffffffffffffffffff160361139c576040517f08c379a000000000000000000000000000000000000000000000000000000000815260040161139390613899565b60405180910390fd5b6113a581611c1e565b50565b60007f01ffc9a7000000000000000000000000000000000000000000000000000000007bffffffffffffffffffffffffffffffffffffffffffffffffffffffff1916827bffffffffffffffffffffffffffffffffffffffffffffffffffffffff1916149050919050565b61141b81611f2b565b61145a576040517f08c379a000000000000000000000000000000000000000000000000000000000815260040161145190613499565b60405180910390fd5b50565b600033905090565b816004600083815260200190815260200160002060006101000a81548173ffffffffffffffffffffffffffffffffffffffff021916908373ffffffffffffffffffffffffffffffffffffffff160217905550808273ffffffffffffffffffffffffffffffffffffffff166114d883610ad6565b73ffffffffffffffffffffffffffffffffffffffff167f8c5be1e5ebec7d5bd14f71427d1e84f3dd0314c0f7b2291e5b200ac8c7c3b92560405160405180910390a45050565b60008061152a83610ad6565b90508073ffffffffffffffffffffffffffffffffffffffff168473ffffffffffffffffffffffffffffffffffffffff16148061156c575061156b8185611291565b5b806115aa57508373ffffffffffffffffffffffffffffffffffffffff1661159284610583565b73ffffffffffffffffffffffffffffffffffffffff16145b91505092915050565b8273ffffffffffffffffffffffffffffffffffffffff166115d382610ad6565b73ffffffffffffffffffffffffffffffffffffffff1614611629576040517f08c379a00000000000000000000000000000000000000000000000000000000081526004016116209061392b565b60405180910390fd5b600073ffffffffffffffffffffffffffffffffffffffff168273ffffffffffffffffffffffffffffffffffffffff1603611698576040517f08c379a000000000000000000000000000000000000000000000000000000000815260040161168f906139bd565b60405180910390fd5b6116a3838383611f97565b6116ae600082611465565b6001600360008573ffffffffffffffffffffffffffffffffffffffff1673ffffffffffffffffffffffffffffffffffffffff16815260200190815260200160002060008282546116fe9190613107565b925050819055506001600360008473ffffffffffffffffffffffffffffffffffffffff1673ffffffffffffffffffffffffffffffffffffffff1681526020019081526020016000206000828254611755919061313b565b92505081905550816002600083815260200190815260200160002060006101000a81548173ffffffffffffffffffffffffffffffffffffffff021916908373ffffffffffffffffffffffffffffffffffffffff160217905550808273ffffffffffffffffffffffffffffffffffffffff168473ffffffffffffffffffffffffffffffffffffffff167fddf252ad1be2c89b69c2b068fc378daa952ba7f163c4a11628f55a4df523b3ef60405160405180910390a4611814838383612016565b505050565b600081600001549050919050565b60606000820361186e576040518060400160405280600181526020017f30000000000000000000000000000000000000000000000000000000000000008152509050611982565b600082905060005b600082146118a057808061188990613191565b915050600a826118999190613a0c565b9150611876565b60008167ffffffffffffffff8111156118bc576118bb612861565b5b6040519080825280601f01601f1916602001820160405280156118ee5781602001600182028036833780820191505090505b5090505b6000851461197b576001826119079190613107565b9150600a856119169190613a3d565b6030611922919061313b565b60f81b81838151811061193857611937612f59565b5b60200101907effffffffffffffffffffffffffffffffffffffffffffffffffffffffffffff1916908160001a905350600a856119749190613a0c565b94506118f2565b8093505050505b919050565b606060008251036119a957604051806020016040528060008152509050611afa565b600060405180606001604052806040815260200161406460409139905060006003600285516119d8919061313b565b6119e29190613a0c565b60046119ee9190613a6e565b905060006020826119ff919061313b565b67ffffffffffffffff811115611a1857611a17612861565b5b6040519080825280601f01601f191660200182016040528015611a4a5781602001600182028036833780820191505090505b509050818152600183018586518101602084015b81831015611ab9576003830192508251603f8160121c168501518253600182019150603f81600c1c168501518253600182019150603f8160061c168501518253600182019150603f8116850151825360018201915050611a5e565b600389510660018114611ad35760028114611ae357611aee565b613d3d60f01b6002830352611aee565b603d60f81b60018303525b50505050508093505050505b919050565b611b1982826040518060200160405280600081525061201b565b5050565b611b2682611f2b565b611b65576040517f08c379a0000000000000000000000000000000000000000000000000000000008152600401611b5c90613b3a565b60405180910390fd5b80600660008481526020019081526020016000209081611b85919061337b565b505050565b6001816000016000828254019250508190555050565b611ba861145d565b73ffffffffffffffffffffffffffffffffffffffff16611bc6610f48565b73ffffffffffffffffffffffffffffffffffffffff1614611c1c576040517f08c379a0000000000000000000000000000000000000000000000000000000008152600401611c1390613ba6565b60405180910390fd5b565b6000600760009054906101000a900473ffffffffffffffffffffffffffffffffffffffff16905081600760006101000a81548173ffffffffffffffffffffffffffffffffffffffff021916908373ffffffffffffffffffffffffffffffffffffffff1602179055508173ffffffffffffffffffffffffffffffffffffffff168173ffffffffffffffffffffffffffffffffffffffff167f8be0079c531659141344cd1fd0a4f28419497f9722a3daafe3b4186f6b6457e060405160405180910390a35050565b8173ffffffffffffffffffffffffffffffffffffffff168373ffffffffffffffffffffffffffffffffffffffff1603611d52576040517f08c379a0000000000000000000000000000000000000000000000000000000008152600401611d4990613c12565b60405180910390fd5b80600560008573ffffffffffffffffffffffffffffffffffffffff1673ffffffffffffffffffffffffffffffffffffffff16815260200190815260200160002060008473ffffffffffffffffffffffffffffffffffffffff1673ffffffffffffffffffffffffffffffffffffffff16815260200190815260200160002060006101000a81548160ff0219169083151502179055508173ffffffffffffffffffffffffffffffffffffffff168373ffffffffffffffffffffffffffffffffffffffff167f17307eab39ab6107e8899845ad3d59bd9653f200f220920489ca2b5937696c3183604051611e4391906124b2565b60405180910390a3505050565b611e5b8484846115b3565b611e6784848484612076565b611ea6576040517f08c379a0000000000000000000000000000000000000000000000000000000008152600401611e9d90613ca4565b60405180910390fd5b50505050565b606060405180602001604052806000815250905090565b6060611ece82611412565b6000611ed8611eac565b90506000815111611ef85760405180602001604052806000815250611f23565b80611f0284611827565b604051602001611f13929190613803565b6040516020818303038152906040525b915050919050565b60008073ffffffffffffffffffffffffffffffffffffffff166002600084815260200190815260200160002060009054906101000a900473ffffffffffffffffffffffffffffffffffffffff1673ffffffffffffffffffffffffffffffffffffffff1614159050919050565b600073ffffffffffffffffffffffffffffffffffffffff168373ffffffffffffffffffffffffffffffffffffffff1614612006576040517f08c379a0000000000000000000000000000000000000000000000000000000008152600401611ffd90613d10565b60405180910390fd5b6120118383836121fd565b505050565b505050565b6120258383612202565b6120326000848484612076565b612071576040517f08c379a000000000000000000000000000000000000000000000000000000000815260040161206890613ca4565b60405180910390fd5b505050565b60006120978473ffffffffffffffffffffffffffffffffffffffff166123db565b156121f0578373ffffffffffffffffffffffffffffffffffffffff1663150b7a026120c061145d565b8786866040518563ffffffff1660e01b81526004016120e29493929190613d30565b6020604051808303816000875af192505050801561211e57506040513d601f19601f8201168201806040525081019061211b9190613d91565b60015b6121a0573d806000811461214e576040519150601f19603f3d011682016040523d82523d6000602084013e612153565b606091505b506000815103612198576040517f08c379a000000000000000000000000000000000000000000000000000000000815260040161218f90613ca4565b60405180910390fd5b805181602001fd5b63150b7a0260e01b7bffffffffffffffffffffffffffffffffffffffffffffffffffffffff1916817bffffffffffffffffffffffffffffffffffffffffffffffffffffffff1916149150506121f5565b600190505b949350505050565b505050565b600073ffffffffffffffffffffffffffffffffffffffff168273ffffffffffffffffffffffffffffffffffffffff1603612271576040517f08c379a000000000000000000000000000000000000000000000000000000000815260040161226890613e0a565b60405180910390fd5b61227a81611f2b565b156122ba576040517f08c379a00000000000000000000000000000000000000000000000000000000081526004016122b190613e76565b60405180910390fd5b6122c660008383611f97565b6001600360008473ffffffffffffffffffffffffffffffffffffffff1673ffffffffffffffffffffffffffffffffffffffff1681526020019081526020016000206000828254612316919061313b565b92505081905550816002600083815260200190815260200160002060006101000a81548173ffffffffffffffffffffffffffffffffffffffff021916908373ffffffffffffffffffffffffffffffffffffffff160217905550808273ffffffffffffffffffffffffffffffffffffffff16600073ffffffffffffffffffffffffffffffffffffffff167fddf252ad1be2c89b69c2b068fc378daa952ba7f163c4a11628f55a4df523b3ef60405160405180910390a46123d760008383612016565b5050565b6000808273ffffffffffffffffffffffffffffffffffffffff163b119050919050565b6000604051905090565b600080fd5b600080fd5b60007fffffffff0000000000000000000000000000000000000000000000000000000082169050919050565b61244781612412565b811461245257600080fd5b50565b6000813590506124648161243e565b92915050565b6000602082840312156124805761247f612408565b5b600061248e84828501612455565b91505092915050565b60008115159050919050565b6124ac81612497565b82525050565b60006020820190506124c760008301846124a3565b92915050565b600081519050919050565b600082825260208201905092915050565b60005b838110156125075780820151818401526020810190506124ec565b83811115612516576000848401525b50505050565b6000601f19601f8301169050919050565b6000612538826124cd565b61254281856124d8565b93506125528185602086016124e9565b61255b8161251c565b840191505092915050565b60006020820190508181036000830152612580818461252d565b905092915050565b6000819050919050565b61259b81612588565b81146125a657600080fd5b50565b6000813590506125b881612592565b92915050565b6000602082840312156125d4576125d3612408565b5b60006125e2848285016125a9565b91505092915050565b600073ffffffffffffffffffffffffffffffffffffffff82169050919050565b6000612616826125eb565b9050919050565b6126268161260b565b82525050565b6000602082019050612641600083018461261d565b92915050565b6126508161260b565b811461265b57600080fd5b50565b60008135905061266d81612647565b92915050565b6000806040838503121561268a57612689612408565b5b60006126988582860161265e565b92505060206126a9858286016125a9565b9150509250929050565b6000806000606084860312156126cc576126cb612408565b5b60006126da8682870161265e565b93505060206126eb8682870161265e565b92505060406126fc868287016125a9565b9150509250925092565b600080fd5b600080fd5b600080fd5b60008083601f84011261272b5761272a612706565b5b8235905067ffffffffffffffff8111156127485761274761270b565b5b60208301915083600182028301111561276457612763612710565b5b9250929050565b6000806020838503121561278257612781612408565b5b600083013567ffffffffffffffff8111156127a05761279f61240d565b5b6127ac85828601612715565b92509250509250929050565b6000819050919050565b60006127dd6127d86127d3846125eb565b6127b8565b6125eb565b9050919050565b60006127ef826127c2565b9050919050565b6000612801826127e4565b9050919050565b612811816127f6565b82525050565b600060208201905061282c6000830184612808565b92915050565b61283b81612588565b82525050565b60006020820190506128566000830184612832565b92915050565b600080fd5b7f4e487b7100000000000000000000000000000000000000000000000000000000600052604160045260246000fd5b6128998261251c565b810181811067ffffffffffffffff821117156128b8576128b7612861565b5b80604052505050565b60006128cb6123fe565b90506128d78282612890565b919050565b600067ffffffffffffffff8211156128f7576128f6612861565b5b6129008261251c565b9050602081019050919050565b82818337600083830152505050565b600061292f61292a846128dc565b6128c1565b90508281526020810184848401111561294b5761294a61285c565b5b61295684828561290d565b509392505050565b600082601f83011261297357612972612706565b5b813561298384826020860161291c565b91505092915050565b6000602082840312156129a2576129a1612408565b5b600082013567ffffffffffffffff8111156129c0576129bf61240d565b5b6129cc8482850161295e565b91505092915050565b600081519050919050565b600082825260208201905092915050565b60006129fc826129d5565b612a0681856129e0565b9350612a168185602086016124e9565b612a1f8161251c565b840191505092915050565b6000604082019050612a3f60008301856124a3565b8181036020830152612a5181846129f1565b90509392505050565b600060208284031215612a7057612a6f612408565b5b6000612a7e8482850161265e565b91505092915050565b612a9081612497565b8114612a9b57600080fd5b50565b600081359050612aad81612a87565b92915050565b60008060408385031215612aca57612ac9612408565b5b6000612ad88582860161265e565b9250506020612ae985828601612a9e565b9150509250929050565b60008060008060808587031215612b0d57612b0c612408565b5b6000612b1b8782880161265e565b9450506020612b2c8782880161265e565b9350506040612b3d878288016125a9565b925050606085013567ffffffffffffffff811115612b5e57612b5d61240d565b5b612b6a8782880161295e565b91505092959194509250565b60008060408385031215612b8d57612b8c612408565b5b6000612b9b8582860161265e565b9250506020612bac8582860161265e565b9150509250929050565b7f4e487b7100000000000000000000000000000000000000000000000000000000600052602260045260246000fd5b60006002820490506001821680612bfd57607f821691505b602082108103612c1057612c0f612bb6565b5b50919050565b7f4552433732313a20617070726f76616c20746f2063757272656e74206f776e6560008201527f7200000000000000000000000000000000000000000000000000000000000000602082015250565b6000612c726021836124d8565b9150612c7d82612c16565b604082019050919050565b60006020820190508181036000830152612ca181612c65565b9050919050565b7f4552433732313a20617070726f76652063616c6c6572206973206e6f7420746f60008201527f6b656e206f776e6572206e6f7220617070726f76656420666f7220616c6c0000602082015250565b6000612d04603e836124d8565b9150612d0f82612ca8565b604082019050919050565b60006020820190508181036000830152612d3381612cf7565b9050919050565b7f4552433732313a2063616c6c6572206973206e6f7420746f6b656e206f776e6560008201527f72206e6f7220617070726f766564000000000000000000000000000000000000602082015250565b6000612d96602e836124d8565b9150612da182612d3a565b604082019050919050565b60006020820190508181036000830152612dc581612d89565b9050919050565b7f55706b656570206e6f74206e6565646564210000000000000000000000000000600082015250565b6000612e026012836124d8565b9150612e0d82612dcc565b602082019050919050565b60006020820190508181036000830152612e3181612df5565b9050919050565b600067ffffffffffffffff821115612e5357612e52612861565b5b602082029050602081019050919050565b600081519050612e7381612647565b92915050565b6000612e8c612e8784612e38565b6128c1565b90508083825260208201905060208402830185811115612eaf57612eae612710565b5b835b81811015612ed85780612ec48882612e64565b845260208401935050602081019050612eb1565b5050509392505050565b600082601f830112612ef757612ef6612706565b5b8151612f07848260208601612e79565b91505092915050565b600060208284031215612f2657612f25612408565b5b600082015167ffffffffffffffff811115612f4457612f4361240d565b5b612f5084828501612ee2565b91505092915050565b7f4e487b7100000000000000000000000000000000000000000000000000000000600052603260045260246000fd5b6000604082019050612f9d600083018561261d565b612faa602083018461261d565b9392505050565b600080fd5b600081519050612fc581612592565b92915050565b600081519050612fda81612a87565b92915050565b60006101008284031215612ff757612ff6612fb1565b5b6130026101006128c1565b9050600061301284828501612e64565b600083015250602061302684828501612e64565b602083015250604061303a84828501612e64565b604083015250606061304e84828501612e64565b606083015250608061306284828501612fb6565b60808301525060a061307684828501612fb6565b60a08301525060c061308a84828501612fb6565b60c08301525060e061309e84828501612fcb565b60e08301525092915050565b600061010082840312156130c1576130c0612408565b5b60006130cf84828501612fe0565b91505092915050565b7f4e487b7100000000000000000000000000000000000000000000000000000000600052601160045260246000fd5b600061311282612588565b915061311d83612588565b9250828210156131305761312f6130d8565b5b828203905092915050565b600061314682612588565b915061315183612588565b9250827fffffffffffffffffffffffffffffffffffffffffffffffffffffffffffffffff03821115613186576131856130d8565b5b828201905092915050565b600061319c82612588565b91507fffffffffffffffffffffffffffffffffffffffffffffffffffffffffffffffff82036131ce576131cd6130d8565b5b600182019050919050565b60008190508160005260206000209050919050565b60006020601f8301049050919050565b600082821b905092915050565b60006008830261323b7fffffffffffffffffffffffffffffffffffffffffffffffffffffffffffffffff826131fe565b61324586836131fe565b95508019841693508086168417925050509392505050565b600061327861327361326e84612588565b6127b8565b612588565b9050919050565b6000819050919050565b6132928361325d565b6132a661329e8261327f565b84845461320b565b825550505050565b600090565b6132bb6132ae565b6132c6818484613289565b505050565b5b818110156132ea576132df6000826132b3565b6001810190506132cc565b5050565b601f82111561332f57613300816131d9565b613309846131ee565b81016020851015613318578190505b61332c613324856131ee565b8301826132cb565b50505b505050565b600082821c905092915050565b600061335260001984600802613334565b1980831691505092915050565b600061336b8383613341565b9150826002028217905092915050565b613384826124cd565b67ffffffffffffffff81111561339d5761339c612861565b5b6133a78254612be5565b6133b28282856132ee565b600060209050601f8311600181146133e557600084156133d3578287015190505b6133dd858261335f565b865550613445565b601f1984166133f3866131d9565b60005b8281101561341b578489015182556001820191506020850194506020810190506133f6565b868310156134385784890151613434601f891682613341565b8355505b6001600288020188555050505b505050505050565b7f4552433732313a20696e76616c696420746f6b656e2049440000000000000000600082015250565b60006134836018836124d8565b915061348e8261344d565b602082019050919050565b600060208201905081810360008301526134b281613476565b9050919050565b6000602082840312156134cf576134ce612408565b5b60006134dd84828501612e64565b91505092915050565b7f416c7265616479206d696e746564210000000000000000000000000000000000600082015250565b600061351c600f836124d8565b9150613527826134e6565b602082019050919050565b6000602082019050818103600083015261354b8161350f565b9050919050565b600081905092915050565b6000613568826124cd565b6135728185613552565b93506135828185602086016124e9565b80840191505092915050565b6000815461359b81612be5565b6135a58186613552565b945060018216600081146135c057600181146135d557613608565b60ff1983168652811515820286019350613608565b6135de856131d9565b60005b83811015613600578154818901526001820191506020810190506135e1565b838801955050505b50505092915050565b600061361d828861355d565b9150613629828761358e565b9150613635828661355d565b9150613641828561355d565b915061364d828461355d565b91508190509695505050505050565b7f7b226e616d65223a20224372656469742053636f7265222c202264657363726960008201527f7074696f6e223a202241204372656469742053636f7265205342542070726f7660208201527f6964656420627920537461726b222c2022696d616765223a2022646174613a6960408201527f6d6167652f7376672b786d6c3b6261736536342c000000000000000000000000606082015250565b6000613704607483613552565b915061370f8261365c565b607482019050919050565b7f227d000000000000000000000000000000000000000000000000000000000000815250565b600061374b826136f7565b9150613757828461355d565b91506137628261371a565b60028201915081905092915050565b7f4552433732313a2061646472657373207a65726f206973206e6f74206120766160008201527f6c6964206f776e65720000000000000000000000000000000000000000000000602082015250565b60006137cd6029836124d8565b91506137d882613771565b604082019050919050565b600060208201905081810360008301526137fc816137c0565b9050919050565b600061380f828561355d565b915061381b828461355d565b91508190509392505050565b7f4f776e61626c653a206e6577206f776e657220697320746865207a65726f206160008201527f6464726573730000000000000000000000000000000000000000000000000000602082015250565b60006138836026836124d8565b915061388e82613827565b604082019050919050565b600060208201905081810360008301526138b281613876565b9050919050565b7f4552433732313a207472616e736665722066726f6d20696e636f72726563742060008201527f6f776e6572000000000000000000000000000000000000000000000000000000602082015250565b60006139156025836124d8565b9150613920826138b9565b604082019050919050565b6000602082019050818103600083015261394481613908565b9050919050565b7f4552433732313a207472616e7366657220746f20746865207a65726f2061646460008201527f7265737300000000000000000000000000000000000000000000000000000000602082015250565b60006139a76024836124d8565b91506139b28261394b565b604082019050919050565b600060208201905081810360008301526139d68161399a565b9050919050565b7f4e487b7100000000000000000000000000000000000000000000000000000000600052601260045260246000fd5b6000613a1782612588565b9150613a2283612588565b925082613a3257613a316139dd565b5b828204905092915050565b6000613a4882612588565b9150613a5383612588565b925082613a6357613a626139dd565b5b828206905092915050565b6000613a7982612588565b9150613a8483612588565b9250817fffffffffffffffffffffffffffffffffffffffffffffffffffffffffffffffff0483118215151615613abd57613abc6130d8565b5b828202905092915050565b7f45524337323155524953746f726167653a2055524920736574206f66206e6f6e60008201527f6578697374656e7420746f6b656e000000000000000000000000000000000000602082015250565b6000613b24602e836124d8565b9150613b2f82613ac8565b604082019050919050565b60006020820190508181036000830152613b5381613b17565b9050919050565b7f4f776e61626c653a2063616c6c6572206973206e6f7420746865206f776e6572600082015250565b6000613b906020836124d8565b9150613b9b82613b5a565b602082019050919050565b60006020820190508181036000830152613bbf81613b83565b9050919050565b7f4552433732313a20617070726f766520746f2063616c6c657200000000000000600082015250565b6000613bfc6019836124d8565b9150613c0782613bc6565b602082019050919050565b60006020820190508181036000830152613c2b81613bef565b9050919050565b7f4552433732313a207472616e7366657220746f206e6f6e20455243373231526560008201527f63656976657220696d706c656d656e7465720000000000000000000000000000602082015250565b6000613c8e6032836124d8565b9150613c9982613c32565b604082019050919050565b60006020820190508181036000830152613cbd81613c81565b9050919050565b7f4572723a20746f6b656e207472616e7366657220697320424c4f434b45440000600082015250565b6000613cfa601e836124d8565b9150613d0582613cc4565b602082019050919050565b60006020820190508181036000830152613d2981613ced565b9050919050565b6000608082019050613d45600083018761261d565b613d52602083018661261d565b613d5f6040830185612832565b8181036060830152613d7181846129f1565b905095945050505050565b600081519050613d8b8161243e565b92915050565b600060208284031215613da757613da6612408565b5b6000613db584828501613d7c565b91505092915050565b7f4552433732313a206d696e7420746f20746865207a65726f2061646472657373600082015250565b6000613df46020836124d8565b9150613dff82613dbe565b602082019050919050565b60006020820190508181036000830152613e2381613de7565b9050919050565b7f4552433732313a20746f6b656e20616c7265616479206d696e74656400000000600082015250565b6000613e60601c836124d8565b9150613e6b82613e2a565b602082019050919050565b60006020820190508181036000830152613e8f81613e53565b905091905056fe223e3c746578742064783d2230222064793d22302220666f6e742d66616d696c793d222671756f743b526f626f746f2671756f743b2220666f6e742d73697a653d2231352220666f6e742d7765696768743d2234303022207472616e73666f726d3d226d617472697828342e3931373132342030203020352e3036323439372038372e383736393031203137352e3932373035322922207374726f6b652d77696474683d2230223e3c747370616e20793d22302220666f6e742d7765696768743d2234303022207374726f6b652d77696474683d2230223e3c7376672069643d226543684b34795874657845312220786d6c6e733d22687474703a2f2f7777772e77332e6f72672f323030302f7376672220786d6c6e733a786c696e6b3d22687474703a2f2f7777772e77332e6f72672f313939392f786c696e6b222076696577426f783d223020302033303020333030222073686170652d72656e646572696e673d2267656f6d6574726963507265636973696f6e2220746578742d72656e646572696e673d2267656f6d6574726963507265636973696f6e222077696474683d2234353022206865696768743d2233303022207374796c653d226261636b67726f756e642d636f6c6f723a4142434445464748494a4b4c4d4e4f505152535455565758595a6162636465666768696a6b6c6d6e6f707172737475767778797a303132333435363738392b2fa2646970667358221220a0c6bca272d5826d23d2cf076ecc5b95b3d0008d66ab3becf7a34c0ad3af4af764736f6c634300080f0033",
  "devdoc": {
    "kind": "dev",
    "methods": {
      "approve(address,uint256)": {
        "details": "See {IERC721-approve}."
      },
      "balanceOf(address)": {
        "details": "See {IERC721-balanceOf}."
      },
      "getApproved(uint256)": {
        "details": "See {IERC721-getApproved}."
      },
      "isApprovedForAll(address,address)": {
        "details": "See {IERC721-isApprovedForAll}."
      },
      "name()": {
        "details": "See {IERC721Metadata-name}."
      },
      "owner()": {
        "details": "Returns the address of the current owner."
      },
      "ownerOf(uint256)": {
        "details": "See {IERC721-ownerOf}."
      },
      "renounceOwnership()": {
        "details": "Leaves the contract without owner. It will not be possible to call `onlyOwner` functions anymore. Can only be called by the current owner. NOTE: Renouncing ownership will leave the contract without an owner, thereby removing any functionality that is only available to the owner."
      },
      "safeTransferFrom(address,address,uint256)": {
        "details": "See {IERC721-safeTransferFrom}."
      },
      "safeTransferFrom(address,address,uint256,bytes)": {
        "details": "See {IERC721-safeTransferFrom}."
      },
      "setApprovalForAll(address,bool)": {
        "details": "See {IERC721-setApprovalForAll}."
      },
      "supportsInterface(bytes4)": {
        "details": "See {IERC165-supportsInterface}."
      },
      "symbol()": {
        "details": "See {IERC721Metadata-symbol}."
      },
      "tokenURI(uint256)": {
        "details": "See {IERC721Metadata-tokenURI}."
      },
      "transferFrom(address,address,uint256)": {
        "details": "See {IERC721-transferFrom}."
      },
      "transferOwnership(address)": {
        "details": "Transfers ownership of the contract to a new account (`newOwner`). Can only be called by the current owner."
      }
    },
    "version": 1
  },
  "userdoc": {
    "kind": "user",
    "methods": {},
    "version": 1
  },
  "storageLayout": {
    "storage": [
      {
        "astId": 971,
        "contract": "contracts/CreditScore.sol:CreditScore",
        "label": "_name",
        "offset": 0,
        "slot": "0",
        "type": "t_string_storage"
      },
      {
        "astId": 973,
        "contract": "contracts/CreditScore.sol:CreditScore",
        "label": "_symbol",
        "offset": 0,
        "slot": "1",
        "type": "t_string_storage"
      },
      {
        "astId": 977,
        "contract": "contracts/CreditScore.sol:CreditScore",
        "label": "_owners",
        "offset": 0,
        "slot": "2",
        "type": "t_mapping(t_uint256,t_address)"
      },
      {
        "astId": 981,
        "contract": "contracts/CreditScore.sol:CreditScore",
        "label": "_balances",
        "offset": 0,
        "slot": "3",
        "type": "t_mapping(t_address,t_uint256)"
      },
      {
        "astId": 985,
        "contract": "contracts/CreditScore.sol:CreditScore",
        "label": "_tokenApprovals",
        "offset": 0,
        "slot": "4",
        "type": "t_mapping(t_uint256,t_address)"
      },
      {
        "astId": 991,
        "contract": "contracts/CreditScore.sol:CreditScore",
        "label": "_operatorApprovals",
        "offset": 0,
        "slot": "5",
        "type": "t_mapping(t_address,t_mapping(t_address,t_bool))"
      },
      {
        "astId": 1959,
        "contract": "contracts/CreditScore.sol:CreditScore",
        "label": "_tokenURIs",
        "offset": 0,
        "slot": "6",
        "type": "t_mapping(t_uint256,t_string_storage)"
      },
      {
        "astId": 111,
        "contract": "contracts/CreditScore.sol:CreditScore",
        "label": "_owner",
        "offset": 0,
        "slot": "7",
        "type": "t_address"
      },
      {
        "astId": 3142,
        "contract": "contracts/CreditScore.sol:CreditScore",
        "label": "_tokenIds",
        "offset": 0,
        "slot": "8",
        "type": "t_struct(Counter)2421_storage"
      },
      {
        "astId": 3145,
        "contract": "contracts/CreditScore.sol:CreditScore",
        "label": "score",
        "offset": 0,
        "slot": "9",
        "type": "t_uint256"
      },
      {
        "astId": 3148,
        "contract": "contracts/CreditScore.sol:CreditScore",
        "label": "color",
        "offset": 0,
        "slot": "10",
        "type": "t_string_storage"
      },
      {
        "astId": 3150,
        "contract": "contracts/CreditScore.sol:CreditScore",
        "label": "lastTimeStamp",
        "offset": 0,
        "slot": "11",
        "type": "t_uint256"
      },
      {
        "astId": 3153,
        "contract": "contracts/CreditScore.sol:CreditScore",
        "label": "allTokenIds",
        "offset": 0,
        "slot": "12",
        "type": "t_array(t_uint256)dyn_storage"
      },
      {
        "astId": 3156,
        "contract": "contracts/CreditScore.sol:CreditScore",
        "label": "creditLogic",
        "offset": 0,
        "slot": "13",
        "type": "t_contract(CreditLogic)3117"
      },
      {
        "astId": 3158,
        "contract": "contracts/CreditScore.sol:CreditScore",
        "label": "sbtOwner",
        "offset": 0,
        "slot": "14",
        "type": "t_address"
      }
    ],
    "types": {
      "t_address": {
        "encoding": "inplace",
        "label": "address",
        "numberOfBytes": "20"
      },
      "t_array(t_uint256)dyn_storage": {
        "base": "t_uint256",
        "encoding": "dynamic_array",
        "label": "uint256[]",
        "numberOfBytes": "32"
      },
      "t_bool": {
        "encoding": "inplace",
        "label": "bool",
        "numberOfBytes": "1"
      },
      "t_contract(CreditLogic)3117": {
        "encoding": "inplace",
        "label": "contract CreditLogic",
        "numberOfBytes": "20"
      },
      "t_mapping(t_address,t_bool)": {
        "encoding": "mapping",
        "key": "t_address",
        "label": "mapping(address => bool)",
        "numberOfBytes": "32",
        "value": "t_bool"
      },
      "t_mapping(t_address,t_mapping(t_address,t_bool))": {
        "encoding": "mapping",
        "key": "t_address",
        "label": "mapping(address => mapping(address => bool))",
        "numberOfBytes": "32",
        "value": "t_mapping(t_address,t_bool)"
      },
      "t_mapping(t_address,t_uint256)": {
        "encoding": "mapping",
        "key": "t_address",
        "label": "mapping(address => uint256)",
        "numberOfBytes": "32",
        "value": "t_uint256"
      },
      "t_mapping(t_uint256,t_address)": {
        "encoding": "mapping",
        "key": "t_uint256",
        "label": "mapping(uint256 => address)",
        "numberOfBytes": "32",
        "value": "t_address"
      },
      "t_mapping(t_uint256,t_string_storage)": {
        "encoding": "mapping",
        "key": "t_uint256",
        "label": "mapping(uint256 => string)",
        "numberOfBytes": "32",
        "value": "t_string_storage"
      },
      "t_string_storage": {
        "encoding": "bytes",
        "label": "string",
        "numberOfBytes": "32"
      },
      "t_struct(Counter)2421_storage": {
        "encoding": "inplace",
        "label": "struct Counters.Counter",
        "members": [
          {
            "astId": 2420,
            "contract": "contracts/CreditScore.sol:CreditScore",
            "label": "_value",
            "offset": 0,
            "slot": "0",
            "type": "t_uint256"
          }
        ],
        "numberOfBytes": "32"
      },
      "t_uint256": {
        "encoding": "inplace",
        "label": "uint256",
        "numberOfBytes": "32"
      }
    }
  }
}