{
  "address": "0x623a957272c015Fe4A3646874cCe78864945EAe2",
  "abi": [
    {
      "anonymous": false,
      "inputs": [
        {
          "indexed": true,
          "internalType": "address",
          "name": "previousOwner",
          "type": "address"
        },
        {
          "indexed": true,
          "internalType": "address",
          "name": "newOwner",
          "type": "address"
        }
      ],
      "name": "OwnershipTransferred",
      "type": "event"
    },
    {
      "inputs": [],
      "name": "getBorrowers",
      "outputs": [
        {
          "internalType": "address[]",
          "name": "",
          "type": "address[]"
        }
      ],
      "stateMutability": "view",
      "type": "function"
    },
    {
      "inputs": [
        {
          "internalType": "address",
          "name": "_lender",
          "type": "address"
        },
        {
          "internalType": "address",
          "name": "_borrower",
          "type": "address"
        }
      ],
      "name": "getGuarantyRequest",
      "outputs": [
        {
          "components": [
            {
              "internalType": "address",
              "name": "borrower",
              "type": "address"
            },
            {
              "internalType": "address",
              "name": "lender",
              "type": "address"
            },
            {
              "internalType": "address",
              "name": "dealAddress",
              "type": "address"
            },
            {
              "internalType": "address",
              "name": "tokenAddress",
              "type": "address"
            },
            {
              "internalType": "uint256",
              "name": "totalAmount",
              "type": "uint256"
            },
            {
              "internalType": "uint256",
              "name": "timeRentedUntil",
              "type": "uint256"
            },
            {
              "internalType": "uint256",
              "name": "timeRentedSince",
              "type": "uint256"
            },
            {
              "internalType": "bool",
              "name": "requestAccepted",
              "type": "bool"
            }
          ],
          "internalType": "struct CreditLogic.GuarantyRequest",
          "name": "",
          "type": "tuple"
        }
      ],
      "stateMutability": "view",
      "type": "function"
    },
    {
      "inputs": [],
      "name": "getLenders",
      "outputs": [
        {
          "internalType": "address[]",
          "name": "",
          "type": "address[]"
        }
      ],
      "stateMutability": "view",
      "type": "function"
    },
    {
      "inputs": [
        {
          "internalType": "address",
          "name": "_borrower",
          "type": "address"
        }
      ],
      "name": "guarantyAcceptRequest",
      "outputs": [],
      "stateMutability": "nonpayable",
      "type": "function"
    },
    {
      "inputs": [
        {
          "internalType": "address",
          "name": "_lender",
          "type": "address"
        },
        {
          "internalType": "address",
          "name": "_tokenAddress",
          "type": "address"
        },
        {
          "internalType": "uint256",
          "name": "_totalAmount",
          "type": "uint256"
        },
        {
          "internalType": "uint256",
          "name": "_timeRentedUntil",
          "type": "uint256"
        }
      ],
      "name": "guarantyRaiseRequest",
      "outputs": [],
      "stateMutability": "nonpayable",
      "type": "function"
    },
    {
      "inputs": [],
      "name": "owner",
      "outputs": [
        {
          "internalType": "address",
          "name": "",
          "type": "address"
        }
      ],
      "stateMutability": "view",
      "type": "function"
    },
    {
      "inputs": [],
      "name": "renounceOwnership",
      "outputs": [],
      "stateMutability": "nonpayable",
      "type": "function"
    },
    {
      "inputs": [
        {
          "internalType": "address",
          "name": "_starkProtocolAddress",
          "type": "address"
        }
      ],
      "name": "setStarkAddress",
      "outputs": [],
      "stateMutability": "nonpayable",
      "type": "function"
    },
    {
      "inputs": [
        {
          "internalType": "address",
          "name": "newOwner",
          "type": "address"
        }
      ],
      "name": "transferOwnership",
      "outputs": [],
      "stateMutability": "nonpayable",
      "type": "function"
    }
  ],
  "transactionHash": "0xc4d9bf5064954af6ed247d35c0554fa41efdb9e9c6554bcb5cf953d0db6b3696",
  "args": [],
  "numDeployments": 4,
  "solcInputHash": "5205c092fd4ffcf082497c6e27bb8f53",
  "bytecode": "0x608060405234801561001057600080fd5b5061002d61002261003260201b60201c565b61003a60201b60201c565b6100fe565b600033905090565b60008060009054906101000a900473ffffffffffffffffffffffffffffffffffffffff169050816000806101000a81548173ffffffffffffffffffffffffffffffffffffffff021916908373ffffffffffffffffffffffffffffffffffffffff1602179055508173ffffffffffffffffffffffffffffffffffffffff168173ffffffffffffffffffffffffffffffffffffffff167f8be0079c531659141344cd1fd0a4f28419497f9722a3daafe3b4186f6b6457e060405160405180910390a35050565b6117c68061010d6000396000f3fe608060405234801561001057600080fd5b50600436106100935760003560e01c80638292687511610066578063829268751461010c57806383e2636b1461012a5780638cd801a0146101465780638da5cb5b14610162578063f2fde38b1461018057610093565b80636854786a14610098578063692177e7146100b65780636b27e9aa146100d2578063715018a614610102575b600080fd5b6100a061019c565b6040516100ad919061120f565b60405180910390f35b6100d060048036038101906100cb9190611262565b61022a565b005b6100ec60048036038101906100e7919061128f565b610741565b6040516100f991906113a5565b60405180910390f35b61010a61096a565b005b61011461097e565b604051610121919061120f565b60405180910390f35b610144600480360381019061013f91906113ed565b610a0c565b005b610160600480360381019061015b9190611262565b610dfd565b005b61016a610e8a565b6040516101779190611463565b60405180910390f35b61019a60048036038101906101959190611262565b610eb3565b005b6060600380548060200260200160405190810160405280929190818152602001828054801561022057602002820191906000526020600020905b8160009054906101000a900473ffffffffffffffffffffffffffffffffffffffff1673ffffffffffffffffffffffffffffffffffffffff16815260200190600101908083116101d6575b5050505050905090565b600060056000610238610f36565b73ffffffffffffffffffffffffffffffffffffffff1673ffffffffffffffffffffffffffffffffffffffff16815260200190815260200160002060008373ffffffffffffffffffffffffffffffffffffffff1673ffffffffffffffffffffffffffffffffffffffff168152602001908152602001600020604051806101000160405290816000820160009054906101000a900473ffffffffffffffffffffffffffffffffffffffff1673ffffffffffffffffffffffffffffffffffffffff1673ffffffffffffffffffffffffffffffffffffffff1681526020016001820160009054906101000a900473ffffffffffffffffffffffffffffffffffffffff1673ffffffffffffffffffffffffffffffffffffffff1673ffffffffffffffffffffffffffffffffffffffff1681526020016002820160009054906101000a900473ffffffffffffffffffffffffffffffffffffffff1673ffffffffffffffffffffffffffffffffffffffff1673ffffffffffffffffffffffffffffffffffffffff1681526020016003820160009054906101000a900473ffffffffffffffffffffffffffffffffffffffff1673ffffffffffffffffffffffffffffffffffffffff1673ffffffffffffffffffffffffffffffffffffffff1681526020016004820154815260200160058201548152602001600682015481526020016007820160009054906101000a900460ff16151515158152505090508060e0015115610493576040517f08c379a000000000000000000000000000000000000000000000000000000000815260040161048a906114db565b60405180910390fd5b6000600160009054906101000a900473ffffffffffffffffffffffffffffffffffffffff1673ffffffffffffffffffffffffffffffffffffffff1663ba37773183606001516104e0610f36565b6040518363ffffffff1660e01b81526004016104fd9291906114fb565b602060405180830381865afa15801561051a573d6000803e3d6000fd5b505050506040513d601f19601f8201168201806040525081019061053e9190611539565b90508082608001511115610587576040517f08c379a000000000000000000000000000000000000000000000000000000000815260040161057e906115b2565b60405180910390fd5b600160009054906101000a900473ffffffffffffffffffffffffffffffffffffffff1673ffffffffffffffffffffffffffffffffffffffff1663bcbc3e1b83606001516105d2610f36565b8686608001516040518563ffffffff1660e01b81526004016105f794939291906115e1565b600060405180830381600087803b15801561061157600080fd5b505af1158015610625573d6000803e3d6000fd5b505050506004610633610f36565b9080600181540180825580915050600190039060005260206000200160009091909190916101000a81548173ffffffffffffffffffffffffffffffffffffffff021916908373ffffffffffffffffffffffffffffffffffffffff160217905550428260c00181815250506001600560006106ab610f36565b73ffffffffffffffffffffffffffffffffffffffff1673ffffffffffffffffffffffffffffffffffffffff16815260200190815260200160002060008573ffffffffffffffffffffffffffffffffffffffff1673ffffffffffffffffffffffffffffffffffffffff16815260200190815260200160002060070160006101000a81548160ff021916908315150217905550505050565b610749611080565b600560008473ffffffffffffffffffffffffffffffffffffffff1673ffffffffffffffffffffffffffffffffffffffff16815260200190815260200160002060008373ffffffffffffffffffffffffffffffffffffffff1673ffffffffffffffffffffffffffffffffffffffff168152602001908152602001600020604051806101000160405290816000820160009054906101000a900473ffffffffffffffffffffffffffffffffffffffff1673ffffffffffffffffffffffffffffffffffffffff1673ffffffffffffffffffffffffffffffffffffffff1681526020016001820160009054906101000a900473ffffffffffffffffffffffffffffffffffffffff1673ffffffffffffffffffffffffffffffffffffffff1673ffffffffffffffffffffffffffffffffffffffff1681526020016002820160009054906101000a900473ffffffffffffffffffffffffffffffffffffffff1673ffffffffffffffffffffffffffffffffffffffff1673ffffffffffffffffffffffffffffffffffffffff1681526020016003820160009054906101000a900473ffffffffffffffffffffffffffffffffffffffff1673ffffffffffffffffffffffffffffffffffffffff1673ffffffffffffffffffffffffffffffffffffffff1681526020016004820154815260200160058201548152602001600682015481526020016007820160009054906101000a900460ff161515151581525050905092915050565b610972610f3e565b61097c6000610fbc565b565b60606004805480602002602001604051908101604052809291908181526020018280548015610a0257602002820191906000526020600020905b8160009054906101000a900473ffffffffffffffffffffffffffffffffffffffff1673ffffffffffffffffffffffffffffffffffffffff16815260200190600101908083116109b8575b5050505050905090565b600560008573ffffffffffffffffffffffffffffffffffffffff1673ffffffffffffffffffffffffffffffffffffffff1681526020019081526020016000206000610a55610f36565b73ffffffffffffffffffffffffffffffffffffffff1673ffffffffffffffffffffffffffffffffffffffff16815260200190815260200160002060070160009054906101000a900460ff1615610ae0576040517f08c379a0000000000000000000000000000000000000000000000000000000008152600401610ad790611672565b60405180910390fd5b610ae8611080565b610af0610f36565b816000019073ffffffffffffffffffffffffffffffffffffffff16908173ffffffffffffffffffffffffffffffffffffffff168152505084816020019073ffffffffffffffffffffffffffffffffffffffff16908173ffffffffffffffffffffffffffffffffffffffff168152505082816080018181525050818160a001818152505083816060019073ffffffffffffffffffffffffffffffffffffffff16908173ffffffffffffffffffffffffffffffffffffffff16815250506003610bb5610f36565b9080600181540180825580915050600190039060005260206000200160009091909190916101000a81548173ffffffffffffffffffffffffffffffffffffffff021916908373ffffffffffffffffffffffffffffffffffffffff16021790555080600560008773ffffffffffffffffffffffffffffffffffffffff1673ffffffffffffffffffffffffffffffffffffffff1681526020019081526020016000206000610c5f610f36565b73ffffffffffffffffffffffffffffffffffffffff1673ffffffffffffffffffffffffffffffffffffffff16815260200190815260200160002060008201518160000160006101000a81548173ffffffffffffffffffffffffffffffffffffffff021916908373ffffffffffffffffffffffffffffffffffffffff16021790555060208201518160010160006101000a81548173ffffffffffffffffffffffffffffffffffffffff021916908373ffffffffffffffffffffffffffffffffffffffff16021790555060408201518160020160006101000a81548173ffffffffffffffffffffffffffffffffffffffff021916908373ffffffffffffffffffffffffffffffffffffffff16021790555060608201518160030160006101000a81548173ffffffffffffffffffffffffffffffffffffffff021916908373ffffffffffffffffffffffffffffffffffffffff1602179055506080820151816004015560a0820151816005015560c0820151816006015560e08201518160070160006101000a81548160ff0219169083151502179055509050505050505050565b610e05610f3e565b80600160006101000a81548173ffffffffffffffffffffffffffffffffffffffff021916908373ffffffffffffffffffffffffffffffffffffffff16021790555080600260006101000a81548173ffffffffffffffffffffffffffffffffffffffff021916908373ffffffffffffffffffffffffffffffffffffffff16021790555050565b60008060009054906101000a900473ffffffffffffffffffffffffffffffffffffffff16905090565b610ebb610f3e565b600073ffffffffffffffffffffffffffffffffffffffff168173ffffffffffffffffffffffffffffffffffffffff1603610f2a576040517f08c379a0000000000000000000000000000000000000000000000000000000008152600401610f2190611704565b60405180910390fd5b610f3381610fbc565b50565b600033905090565b610f46610f36565b73ffffffffffffffffffffffffffffffffffffffff16610f64610e8a565b73ffffffffffffffffffffffffffffffffffffffff1614610fba576040517f08c379a0000000000000000000000000000000000000000000000000000000008152600401610fb190611770565b60405180910390fd5b565b60008060009054906101000a900473ffffffffffffffffffffffffffffffffffffffff169050816000806101000a81548173ffffffffffffffffffffffffffffffffffffffff021916908373ffffffffffffffffffffffffffffffffffffffff1602179055508173ffffffffffffffffffffffffffffffffffffffff168173ffffffffffffffffffffffffffffffffffffffff167f8be0079c531659141344cd1fd0a4f28419497f9722a3daafe3b4186f6b6457e060405160405180910390a35050565b604051806101000160405280600073ffffffffffffffffffffffffffffffffffffffff168152602001600073ffffffffffffffffffffffffffffffffffffffff168152602001600073ffffffffffffffffffffffffffffffffffffffff168152602001600073ffffffffffffffffffffffffffffffffffffffff1681526020016000815260200160008152602001600081526020016000151581525090565b600081519050919050565b600082825260208201905092915050565b6000819050602082019050919050565b600073ffffffffffffffffffffffffffffffffffffffff82169050919050565b60006111768261114b565b9050919050565b6111868161116b565b82525050565b6000611198838361117d565b60208301905092915050565b6000602082019050919050565b60006111bc8261111f565b6111c6818561112a565b93506111d18361113b565b8060005b838110156112025781516111e9888261118c565b97506111f4836111a4565b9250506001810190506111d5565b5085935050505092915050565b6000602082019050818103600083015261122981846111b1565b905092915050565b600080fd5b61123f8161116b565b811461124a57600080fd5b50565b60008135905061125c81611236565b92915050565b60006020828403121561127857611277611231565b5b60006112868482850161124d565b91505092915050565b600080604083850312156112a6576112a5611231565b5b60006112b48582860161124d565b92505060206112c58582860161124d565b9150509250929050565b6000819050919050565b6112e2816112cf565b82525050565b60008115159050919050565b6112fd816112e8565b82525050565b6101008201600082015161131a600085018261117d565b50602082015161132d602085018261117d565b506040820151611340604085018261117d565b506060820151611353606085018261117d565b50608082015161136660808501826112d9565b5060a082015161137960a08501826112d9565b5060c082015161138c60c08501826112d9565b5060e082015161139f60e08501826112f4565b50505050565b6000610100820190506113bb6000830184611303565b92915050565b6113ca816112cf565b81146113d557600080fd5b50565b6000813590506113e7816113c1565b92915050565b6000806000806080858703121561140757611406611231565b5b60006114158782880161124d565b94505060206114268782880161124d565b9350506040611437878288016113d8565b9250506060611448878288016113d8565b91505092959194509250565b61145d8161116b565b82525050565b60006020820190506114786000830184611454565b92915050565b600082825260208201905092915050565b7f4552523a20416c72656164792041636365707465640000000000000000000000600082015250565b60006114c560158361147e565b91506114d08261148f565b602082019050919050565b600060208201905081810360008301526114f4816114b8565b9050919050565b60006040820190506115106000830185611454565b61151d6020830184611454565b9392505050565b600081519050611533816113c1565b92915050565b60006020828403121561154f5761154e611231565b5b600061155d84828501611524565b91505092915050565b7f4552523a204e6f7420456e6f75676820416d6f756e7400000000000000000000600082015250565b600061159c60168361147e565b91506115a782611566565b602082019050919050565b600060208201905081810360008301526115cb8161158f565b9050919050565b6115db816112cf565b82525050565b60006080820190506115f66000830187611454565b6116036020830186611454565b6116106040830185611454565b61161d60608301846115d2565b95945050505050565b7f4572723a20416c72656164792052616973656400000000000000000000000000600082015250565b600061165c60138361147e565b915061166782611626565b602082019050919050565b6000602082019050818103600083015261168b8161164f565b9050919050565b7f4f776e61626c653a206e6577206f776e657220697320746865207a65726f206160008201527f6464726573730000000000000000000000000000000000000000000000000000602082015250565b60006116ee60268361147e565b91506116f982611692565b604082019050919050565b6000602082019050818103600083015261171d816116e1565b9050919050565b7f4f776e61626c653a2063616c6c6572206973206e6f7420746865206f776e6572600082015250565b600061175a60208361147e565b915061176582611724565b602082019050919050565b600060208201905081810360008301526117898161174d565b905091905056fea2646970667358221220cd180055e137865129edf61812a37d7dfe3a2f7b8339de9b794d0e6f61290ad264736f6c634300080f0033",
  "devdoc": {
    "kind": "dev",
    "methods": {
      "owner()": {
        "details": "Returns the address of the current owner."
      },
      "renounceOwnership()": {
        "details": "Leaves the contract without owner. It will not be possible to call `onlyOwner` functions anymore. Can only be called by the current owner. NOTE: Renouncing ownership will leave the contract without an owner, thereby removing any functionality that is only available to the owner."
      },
      "transferOwnership(address)": {
        "details": "Transfers ownership of the contract to a new account (`newOwner`). Can only be called by the current owner."
      }
    },
    "version": 1
  },
  "userdoc": {
    "kind": "user",
    "methods": {},
    "version": 1
  },
  "storageLayout": {
    "storage": [
      {
        "astId": 111,
        "contract": "contracts/CreditLogic.sol:CreditLogic",
        "label": "_owner",
        "offset": 0,
        "slot": "0",
        "type": "t_address"
      },
      {
        "astId": 2879,
        "contract": "contracts/CreditLogic.sol:CreditLogic",
        "label": "starkContract",
        "offset": 0,
        "slot": "1",
        "type": "t_contract(Istark_protocol)5713"
      },
      {
        "astId": 2881,
        "contract": "contracts/CreditLogic.sol:CreditLogic",
        "label": "starkProtocolAddress",
        "offset": 0,
        "slot": "2",
        "type": "t_address"
      },
      {
        "astId": 2884,
        "contract": "contracts/CreditLogic.sol:CreditLogic",
        "label": "borrowers",
        "offset": 0,
        "slot": "3",
        "type": "t_array(t_address)dyn_storage"
      },
      {
        "astId": 2887,
        "contract": "contracts/CreditLogic.sol:CreditLogic",
        "label": "lenders",
        "offset": 0,
        "slot": "4",
        "type": "t_array(t_address)dyn_storage"
      },
      {
        "astId": 2929,
        "contract": "contracts/CreditLogic.sol:CreditLogic",
        "label": "guarantyRequests",
        "offset": 0,
        "slot": "5",
        "type": "t_mapping(t_address,t_mapping(t_address,t_struct(GuarantyRequest)2922_storage))"
      }
    ],
    "types": {
      "t_address": {
        "encoding": "inplace",
        "label": "address",
        "numberOfBytes": "20"
      },
      "t_array(t_address)dyn_storage": {
        "base": "t_address",
        "encoding": "dynamic_array",
        "label": "address[]",
        "numberOfBytes": "32"
      },
      "t_bool": {
        "encoding": "inplace",
        "label": "bool",
        "numberOfBytes": "1"
      },
      "t_contract(Istark_protocol)5713": {
        "encoding": "inplace",
        "label": "contract Istark_protocol",
        "numberOfBytes": "20"
      },
      "t_mapping(t_address,t_mapping(t_address,t_struct(GuarantyRequest)2922_storage))": {
        "encoding": "mapping",
        "key": "t_address",
        "label": "mapping(address => mapping(address => struct CreditLogic.GuarantyRequest))",
        "numberOfBytes": "32",
        "value": "t_mapping(t_address,t_struct(GuarantyRequest)2922_storage)"
      },
      "t_mapping(t_address,t_struct(GuarantyRequest)2922_storage)": {
        "encoding": "mapping",
        "key": "t_address",
        "label": "mapping(address => struct CreditLogic.GuarantyRequest)",
        "numberOfBytes": "32",
        "value": "t_struct(GuarantyRequest)2922_storage"
      },
      "t_struct(GuarantyRequest)2922_storage": {
        "encoding": "inplace",
        "label": "struct CreditLogic.GuarantyRequest",
        "members": [
          {
            "astId": 2907,
            "contract": "contracts/CreditLogic.sol:CreditLogic",
            "label": "borrower",
            "offset": 0,
            "slot": "0",
            "type": "t_address"
          },
          {
            "astId": 2909,
            "contract": "contracts/CreditLogic.sol:CreditLogic",
            "label": "lender",
            "offset": 0,
            "slot": "1",
            "type": "t_address"
          },
          {
            "astId": 2911,
            "contract": "contracts/CreditLogic.sol:CreditLogic",
            "label": "dealAddress",
            "offset": 0,
            "slot": "2",
            "type": "t_address"
          },
          {
            "astId": 2913,
            "contract": "contracts/CreditLogic.sol:CreditLogic",
            "label": "tokenAddress",
            "offset": 0,
            "slot": "3",
            "type": "t_address"
          },
          {
            "astId": 2915,
            "contract": "contracts/CreditLogic.sol:CreditLogic",
            "label": "totalAmount",
            "offset": 0,
            "slot": "4",
            "type": "t_uint256"
          },
          {
            "astId": 2917,
            "contract": "contracts/CreditLogic.sol:CreditLogic",
            "label": "timeRentedUntil",
            "offset": 0,
            "slot": "5",
            "type": "t_uint256"
          },
          {
            "astId": 2919,
            "contract": "contracts/CreditLogic.sol:CreditLogic",
            "label": "timeRentedSince",
            "offset": 0,
            "slot": "6",
            "type": "t_uint256"
          },
          {
            "astId": 2921,
            "contract": "contracts/CreditLogic.sol:CreditLogic",
            "label": "requestAccepted",
            "offset": 0,
            "slot": "7",
            "type": "t_bool"
          }
        ],
        "numberOfBytes": "256"
      },
      "t_uint256": {
        "encoding": "inplace",
        "label": "uint256",
        "numberOfBytes": "32"
      }
    }
  }
}