{
  "address": "0xe7741e436d63d8CAF5AAAF2AEe6F789fc69bFbEe",
  "abi": [
    {
      "inputs": [
        {
          "internalType": "address[]",
          "name": "allowedTokens",
          "type": "address[]"
        },
        {
          "internalType": "address[]",
          "name": "priceFeeds",
          "type": "address[]"
        },
        {
          "internalType": "uint256",
          "name": "updateInterval",
          "type": "uint256"
        }
      ],
      "stateMutability": "nonpayable",
      "type": "constructor"
    },
    {
      "inputs": [
        {
          "internalType": "uint256",
          "name": "amount",
          "type": "uint256"
        }
      ],
      "name": "Stark__CannotWithdrawMoreThanSupplied",
      "type": "error"
    },
    {
      "inputs": [],
      "name": "Stark__CouldNotBorrowMoreThan80PercentOfCollateral",
      "type": "error"
    },
    {
      "inputs": [
        {
          "internalType": "uint256",
          "name": "amount",
          "type": "uint256"
        }
      ],
      "name": "Stark__NeedMoreThanZero",
      "type": "error"
    },
    {
      "inputs": [
        {
          "internalType": "uint256",
          "name": "amount",
          "type": "uint256"
        }
      ],
      "name": "Stark__NotAllowedBeforeRepayingExistingLoan",
      "type": "error"
    },
    {
      "inputs": [],
      "name": "Stark__NotSupplied",
      "type": "error"
    },
    {
      "inputs": [
        {
          "internalType": "address",
          "name": "tokenAddress",
          "type": "address"
        }
      ],
      "name": "Stark__SorryWeCurrentlyDoNotHaveThisToken",
      "type": "error"
    },
    {
      "inputs": [
        {
          "internalType": "address",
          "name": "tokenAddress",
          "type": "address"
        }
      ],
      "name": "Stark__ThisTokenIsNotAvailable",
      "type": "error"
    },
    {
      "inputs": [],
      "name": "Stark__TransactionFailed",
      "type": "error"
    },
    {
      "inputs": [],
      "name": "Stark__UpKeepNotNeeded",
      "type": "error"
    },
    {
      "anonymous": false,
      "inputs": [
        {
          "indexed": true,
          "internalType": "address",
          "name": "userAddress",
          "type": "address"
        },
        {
          "indexed": true,
          "internalType": "address",
          "name": "friendAddress",
          "type": "address"
        },
        {
          "indexed": true,
          "internalType": "bool",
          "name": "reponse",
          "type": "bool"
        }
      ],
      "name": "Guaranteed",
      "type": "event"
    },
    {
      "anonymous": false,
      "inputs": [
        {
          "indexed": true,
          "internalType": "address",
          "name": "previousOwner",
          "type": "address"
        },
        {
          "indexed": true,
          "internalType": "address",
          "name": "newOwner",
          "type": "address"
        }
      ],
      "name": "OwnershipTransferred",
      "type": "event"
    },
    {
      "anonymous": false,
      "inputs": [
        {
          "indexed": true,
          "internalType": "address",
          "name": "tokenAddress",
          "type": "address"
        },
        {
          "indexed": true,
          "internalType": "address",
          "name": "userAddress",
          "type": "address"
        },
        {
          "indexed": true,
          "internalType": "uint256",
          "name": "amount",
          "type": "uint256"
        }
      ],
      "name": "TokenBorrowed",
      "type": "event"
    },
    {
      "anonymous": false,
      "inputs": [
        {
          "indexed": true,
          "internalType": "address",
          "name": "tokenAddress",
          "type": "address"
        },
        {
          "indexed": true,
          "internalType": "address",
          "name": "userAddress",
          "type": "address"
        },
        {
          "indexed": true,
          "internalType": "uint256",
          "name": "amount",
          "type": "uint256"
        }
      ],
      "name": "TokenRepaid",
      "type": "event"
    },
    {
      "anonymous": false,
      "inputs": [
        {
          "indexed": true,
          "internalType": "address",
          "name": "tokenAddress",
          "type": "address"
        },
        {
          "indexed": true,
          "internalType": "address",
          "name": "userAddress",
          "type": "address"
        },
        {
          "indexed": true,
          "internalType": "uint256",
          "name": "amount",
          "type": "uint256"
        }
      ],
      "name": "TokenSupplied",
      "type": "event"
    },
    {
      "anonymous": false,
      "inputs": [
        {
          "indexed": true,
          "internalType": "address",
          "name": "tokenAddress",
          "type": "address"
        },
        {
          "indexed": true,
          "internalType": "address",
          "name": "userAddress",
          "type": "address"
        },
        {
          "indexed": true,
          "internalType": "uint256",
          "name": "amount",
          "type": "uint256"
        }
      ],
      "name": "TokenWithdrawn",
      "type": "event"
    },
    {
      "inputs": [
        {
          "internalType": "address",
          "name": "_contractAddress",
          "type": "address"
        }
      ],
      "name": "addAllowContracts",
      "outputs": [],
      "stateMutability": "nonpayable",
      "type": "function"
    },
    {
      "inputs": [
        {
          "internalType": "address",
          "name": "friendAddress",
          "type": "address"
        }
      ],
      "name": "allowGuaranty",
      "outputs": [],
      "stateMutability": "nonpayable",
      "type": "function"
    },
    {
      "inputs": [
        {
          "internalType": "address",
          "name": "tokenAddress",
          "type": "address"
        },
        {
          "internalType": "uint256",
          "name": "amount",
          "type": "uint256"
        }
      ],
      "name": "borrow",
      "outputs": [],
      "stateMutability": "payable",
      "type": "function"
    },
    {
      "inputs": [
        {
          "internalType": "bytes",
          "name": "",
          "type": "bytes"
        }
      ],
      "name": "checkUpkeep",
      "outputs": [
        {
          "internalType": "bool",
          "name": "upkeepNeeded",
          "type": "bool"
        },
        {
          "internalType": "bytes",
          "name": "",
          "type": "bytes"
        }
      ],
      "stateMutability": "view",
      "type": "function"
    },
    {
      "inputs": [
        {
          "internalType": "address",
          "name": "friendAddress",
          "type": "address"
        }
      ],
      "name": "disAllowGuaranty",
      "outputs": [],
      "stateMutability": "nonpayable",
      "type": "function"
    },
    {
      "inputs": [
        {
          "internalType": "address",
          "name": "tokenAddress",
          "type": "address"
        }
      ],
      "name": "faucet",
      "outputs": [],
      "stateMutability": "nonpayable",
      "type": "function"
    },
    {
      "inputs": [],
      "name": "getAllTokenSupplyInUsd",
      "outputs": [
        {
          "internalType": "uint256",
          "name": "",
          "type": "uint256"
        }
      ],
      "stateMutability": "view",
      "type": "function"
    },
    {
      "inputs": [],
      "name": "getAllowedTokens",
      "outputs": [
        {
          "internalType": "address[]",
          "name": "",
          "type": "address[]"
        }
      ],
      "stateMutability": "view",
      "type": "function"
    },
    {
      "inputs": [
        {
          "internalType": "address",
          "name": "tokenAddress",
          "type": "address"
        },
        {
          "internalType": "address",
          "name": "userAddress",
          "type": "address"
        }
      ],
      "name": "getBorrowedBalance",
      "outputs": [
        {
          "internalType": "uint256",
          "name": "",
          "type": "uint256"
        }
      ],
      "stateMutability": "view",
      "type": "function"
    },
    {
      "inputs": [],
      "name": "getBorrowers",
      "outputs": [
        {
          "internalType": "address[]",
          "name": "",
          "type": "address[]"
        }
      ],
      "stateMutability": "view",
      "type": "function"
    },
    {
      "inputs": [],
      "name": "getInterval",
      "outputs": [
        {
          "internalType": "uint256",
          "name": "",
          "type": "uint256"
        }
      ],
      "stateMutability": "view",
      "type": "function"
    },
    {
      "inputs": [
        {
          "internalType": "address",
          "name": "tokenAddress",
          "type": "address"
        }
      ],
      "name": "getLatestPrice",
      "outputs": [
        {
          "internalType": "uint256",
          "name": "",
          "type": "uint256"
        },
        {
          "internalType": "uint256",
          "name": "",
          "type": "uint256"
        }
      ],
      "stateMutability": "view",
      "type": "function"
    },
    {
      "inputs": [
        {
          "internalType": "address",
          "name": "tokenAddress",
          "type": "address"
        },
        {
          "internalType": "address",
          "name": "userAddress",
          "type": "address"
        }
      ],
      "name": "getLockedBalance",
      "outputs": [
        {
          "internalType": "uint256",
          "name": "",
          "type": "uint256"
        }
      ],
      "stateMutability": "view",
      "type": "function"
    },
    {
      "inputs": [
        {
          "internalType": "address",
          "name": "userAddress",
          "type": "address"
        }
      ],
      "name": "getMaxBorrow",
      "outputs": [
        {
          "internalType": "uint256",
          "name": "",
          "type": "uint256"
        }
      ],
      "stateMutability": "view",
      "type": "function"
    },
    {
      "inputs": [
        {
          "internalType": "address",
          "name": "tokenAddress",
          "type": "address"
        },
        {
          "internalType": "address",
          "name": "userAddress",
          "type": "address"
        }
      ],
      "name": "getMaxTokenBorrow",
      "outputs": [
        {
          "internalType": "uint256",
          "name": "",
          "type": "uint256"
        }
      ],
      "stateMutability": "view",
      "type": "function"
    },
    {
      "inputs": [
        {
          "internalType": "address",
          "name": "tokenAddress",
          "type": "address"
        },
        {
          "internalType": "address",
          "name": "userAddress",
          "type": "address"
        }
      ],
      "name": "getMaxWithdraw",
      "outputs": [
        {
          "internalType": "uint256",
          "name": "",
          "type": "uint256"
        }
      ],
      "stateMutability": "view",
      "type": "function"
    },
    {
      "inputs": [],
      "name": "getSuppliers",
      "outputs": [
        {
          "internalType": "address[]",
          "name": "",
          "type": "address[]"
        }
      ],
      "stateMutability": "view",
      "type": "function"
    },
    {
      "inputs": [
        {
          "internalType": "address",
          "name": "tokenAddress",
          "type": "address"
        },
        {
          "internalType": "address",
          "name": "userAddress",
          "type": "address"
        }
      ],
      "name": "getSupplyBalance",
      "outputs": [
        {
          "internalType": "uint256",
          "name": "",
          "type": "uint256"
        }
      ],
      "stateMutability": "view",
      "type": "function"
    },
    {
      "inputs": [
        {
          "internalType": "address",
          "name": "tokenAddress",
          "type": "address"
        }
      ],
      "name": "getTokenTotalSupply",
      "outputs": [
        {
          "internalType": "uint256",
          "name": "",
          "type": "uint256"
        }
      ],
      "stateMutability": "view",
      "type": "function"
    },
    {
      "inputs": [
        {
          "internalType": "address",
          "name": "userAddress",
          "type": "address"
        }
      ],
      "name": "getTotalAllowedValue",
      "outputs": [
        {
          "internalType": "uint256",
          "name": "",
          "type": "uint256"
        }
      ],
      "stateMutability": "view",
      "type": "function"
    },
    {
      "inputs": [
        {
          "internalType": "address",
          "name": "userAddress",
          "type": "address"
        }
      ],
      "name": "getTotalBorrowValue",
      "outputs": [
        {
          "internalType": "uint256",
          "name": "",
          "type": "uint256"
        }
      ],
      "stateMutability": "view",
      "type": "function"
    },
    {
      "inputs": [
        {
          "internalType": "address",
          "name": "userAddress",
          "type": "address"
        }
      ],
      "name": "getTotalLockedValue",
      "outputs": [
        {
          "internalType": "uint256",
          "name": "",
          "type": "uint256"
        }
      ],
      "stateMutability": "view",
      "type": "function"
    },
    {
      "inputs": [
        {
          "internalType": "address",
          "name": "userAddress",
          "type": "address"
        }
      ],
      "name": "getTotalSupplyAllowedValue",
      "outputs": [
        {
          "internalType": "uint256",
          "name": "",
          "type": "uint256"
        }
      ],
      "stateMutability": "view",
      "type": "function"
    },
    {
      "inputs": [
        {
          "internalType": "address",
          "name": "userAddress",
          "type": "address"
        }
      ],
      "name": "getTotalSupplyValue",
      "outputs": [
        {
          "internalType": "uint256",
          "name": "",
          "type": "uint256"
        }
      ],
      "stateMutability": "view",
      "type": "function"
    },
    {
      "inputs": [
        {
          "internalType": "address",
          "name": "userAddress",
          "type": "address"
        }
      ],
      "name": "getUniqueBorrowerTokens",
      "outputs": [
        {
          "internalType": "address[]",
          "name": "",
          "type": "address[]"
        }
      ],
      "stateMutability": "view",
      "type": "function"
    },
    {
      "inputs": [
        {
          "internalType": "address",
          "name": "userAddress",
          "type": "address"
        }
      ],
      "name": "getUniqueSupplierTokens",
      "outputs": [
        {
          "internalType": "address[]",
          "name": "",
          "type": "address[]"
        }
      ],
      "stateMutability": "view",
      "type": "function"
    },
    {
      "inputs": [],
      "name": "liquidation",
      "outputs": [],
      "stateMutability": "nonpayable",
      "type": "function"
    },
    {
      "inputs": [
        {
          "internalType": "address",
          "name": "_tokenAddress",
          "type": "address"
        },
        {
          "internalType": "address",
          "name": "_lender",
          "type": "address"
        },
        {
          "internalType": "address",
          "name": "_borrower",
          "type": "address"
        },
        {
          "internalType": "uint256",
          "name": "_tokenAmount",
          "type": "uint256"
        }
      ],
      "name": "lockBalanceChanges",
      "outputs": [],
      "stateMutability": "nonpayable",
      "type": "function"
    },
    {
      "inputs": [],
      "name": "owner",
      "outputs": [
        {
          "internalType": "address",
          "name": "",
          "type": "address"
        }
      ],
      "stateMutability": "view",
      "type": "function"
    },
    {
      "inputs": [
        {
          "internalType": "bytes",
          "name": "",
          "type": "bytes"
        }
      ],
      "name": "performUpkeep",
      "outputs": [],
      "stateMutability": "nonpayable",
      "type": "function"
    },
    {
      "inputs": [],
      "name": "renounceOwnership",
      "outputs": [],
      "stateMutability": "nonpayable",
      "type": "function"
    },
    {
      "inputs": [
        {
          "internalType": "address",
          "name": "tokenAddress",
          "type": "address"
        },
        {
          "internalType": "uint256",
          "name": "amount",
          "type": "uint256"
        }
      ],
      "name": "repay",
      "outputs": [],
      "stateMutability": "payable",
      "type": "function"
    },
    {
      "inputs": [
        {
          "internalType": "address",
          "name": "tokenAddress",
          "type": "address"
        },
        {
          "internalType": "uint256",
          "name": "amount",
          "type": "uint256"
        }
      ],
      "name": "supply",
      "outputs": [],
      "stateMutability": "payable",
      "type": "function"
    },
    {
      "inputs": [
        {
          "internalType": "address",
          "name": "newOwner",
          "type": "address"
        }
      ],
      "name": "transferOwnership",
      "outputs": [],
      "stateMutability": "nonpayable",
      "type": "function"
    },
    {
      "inputs": [
        {
          "internalType": "address",
          "name": "tokenAddress",
          "type": "address"
        },
        {
          "internalType": "uint256",
          "name": "amount",
          "type": "uint256"
        }
      ],
      "name": "withdraw",
      "outputs": [],
      "stateMutability": "payable",
      "type": "function"
    }
  ],
  "transactionHash": "0x6367eaa8eeddfcc4cf203e7ab78cfad2762f8d777b9290edc79b2aa7a511372e",
  "args": [
    [
      "0xe83b16E5EDEd23f7e8276930D26D376d0b05b915",
      "0xc113cb45987F301081edc7A4ce0376525F573Aab",
      "0x6FFD350f9C705d58586Da02be32623D040f8976E",
      "0x74758d04BCE3Aee82e88335BB3212010Eb0B91A3",
      "0xD41D929D5eAa0aF3e89679950640bA6abB8e589b"
    ],
    [
      "0x007A22900a3B98143368Bd5906f8E17e9867581b",
      "0x0715A7794a1dc8e42615F059dD6e406A6594651A",
      "0x0FCAa9c899EC5A91eBc3D5Dd869De833b06fB046",
      "0x572dDec9087154dC5dfBB1546Bb62713147e0Ab0",
      "0x0FCAa9c899EC5A91eBc3D5Dd869De833b06fB046"
    ],
    "30"
  ],
  "numDeployments": 4,
  "solcInputHash": "10a5bbddd3aba8887f48d74b9df19dca",
  "bytecode": "0x60a06040523480156200001157600080fd5b506040516200619d3803806200619d833981810160405281019062000037919062000574565b60016000819055506200005f62000053620001cf60201b60201c565b620001d760201b60201c565b8260039080519060200190620000779291906200029d565b5060005b835181101562000153578281815181106200009b576200009a6200060e565b5b6020026020010151600c6000868481518110620000bd57620000bc6200060e565b5b602002602001015173ffffffffffffffffffffffffffffffffffffffff1673ffffffffffffffffffffffffffffffffffffffff16815260200190815260200160002060006101000a81548173ffffffffffffffffffffffffffffffffffffffff021916908373ffffffffffffffffffffffffffffffffffffffff16021790555080806200014a906200066c565b9150506200007b565b508060808181525050426007819055506006339080600181540180825580915050600190039060005260206000200160009091909190916101000a81548173ffffffffffffffffffffffffffffffffffffffff021916908373ffffffffffffffffffffffffffffffffffffffff160217905550505050620006b9565b600033905090565b6000600160009054906101000a900473ffffffffffffffffffffffffffffffffffffffff16905081600160006101000a81548173ffffffffffffffffffffffffffffffffffffffff021916908373ffffffffffffffffffffffffffffffffffffffff1602179055508173ffffffffffffffffffffffffffffffffffffffff168173ffffffffffffffffffffffffffffffffffffffff167f8be0079c531659141344cd1fd0a4f28419497f9722a3daafe3b4186f6b6457e060405160405180910390a35050565b82805482825590600052602060002090810192821562000319579160200282015b82811115620003185782518260006101000a81548173ffffffffffffffffffffffffffffffffffffffff021916908373ffffffffffffffffffffffffffffffffffffffff16021790555091602001919060010190620002be565b5b5090506200032891906200032c565b5090565b5b80821115620003475760008160009055506001016200032d565b5090565b6000604051905090565b600080fd5b600080fd5b600080fd5b6000601f19601f8301169050919050565b7f4e487b7100000000000000000000000000000000000000000000000000000000600052604160045260246000fd5b620003af8262000364565b810181811067ffffffffffffffff82111715620003d157620003d062000375565b5b80604052505050565b6000620003e66200034b565b9050620003f48282620003a4565b919050565b600067ffffffffffffffff82111562000417576200041662000375565b5b602082029050602081019050919050565b600080fd5b600073ffffffffffffffffffffffffffffffffffffffff82169050919050565b60006200045a826200042d565b9050919050565b6200046c816200044d565b81146200047857600080fd5b50565b6000815190506200048c8162000461565b92915050565b6000620004a9620004a384620003f9565b620003da565b90508083825260208201905060208402830185811115620004cf57620004ce62000428565b5b835b81811015620004fc5780620004e788826200047b565b845260208401935050602081019050620004d1565b5050509392505050565b600082601f8301126200051e576200051d6200035f565b5b81516200053084826020860162000492565b91505092915050565b6000819050919050565b6200054e8162000539565b81146200055a57600080fd5b50565b6000815190506200056e8162000543565b92915050565b60008060006060848603121562000590576200058f62000355565b5b600084015167ffffffffffffffff811115620005b157620005b06200035a565b5b620005bf8682870162000506565b935050602084015167ffffffffffffffff811115620005e357620005e26200035a565b5b620005f18682870162000506565b925050604062000604868287016200055d565b9150509250925092565b7f4e487b7100000000000000000000000000000000000000000000000000000000600052603260045260246000fd5b7f4e487b7100000000000000000000000000000000000000000000000000000000600052601160045260246000fd5b6000620006798262000539565b91507fffffffffffffffffffffffffffffffffffffffffffffffffffffffffffffffff8203620006ae57620006ad6200063d565b5b600182019050919050565b608051615ac1620006dc6000396000818161199f0152611a5f0152615ac16000f3fe6080604052600436106102045760003560e01c8063b3b6a29611610118578063e6b98eba116100a0578063f2fde38b1161006f578063f2fde38b146107b0578063f3fef3a3146107d9578063f73a25af146107f5578063fd1c317a14610820578063ffd70a271461085d57610204565b8063e6b98eba14610717578063eb4e51e014610740578063f2b9fdb81461077d578063f2dfbf661461079957610204565b8063bcbc3e1b116100e7578063bcbc3e1b146105fa578063c736887e14610623578063cbbc251214610660578063d0c3fd211461069d578063e1d41263146106da57610204565b8063b3b6a2961461051a578063b6a6df6e14610557578063b86d1d6314610594578063ba377731146105bd57610204565b80635d7021521161019b5780638da5cb5b1161016a5780638da5cb5b1461042157806391ad27b41461044c578063a9cbf35614610477578063aed00420146104b4578063b37bdb05146104dd57610204565b80635d702152146103785780636854786a146103a15780636e04ff0d146103cc578063715018a61461040a57610204565b80632c4fe48d116101d75780632c4fe48d146102cb57806343516832146103085780634585e33b146103335780634b8a35291461035c57610204565b8063024ece891461020957806316345f18146102345780631a1a919e1461027257806322867d78146102af575b600080fd5b34801561021557600080fd5b5061021e61089a565b60405161022b9190614d40565b60405180910390f35b34801561024057600080fd5b5061025b60048036038101906102569190614da2565b610928565b604051610269929190614de8565b60405180910390f35b34801561027e57600080fd5b5061029960048036038101906102949190614da2565b610ae3565b6040516102a69190614e11565b60405180910390f35b6102c960048036038101906102c49190614e58565b610c51565b005b3480156102d757600080fd5b506102f260048036038101906102ed9190614da2565b610f06565b6040516102ff9190614e11565b60405180910390f35b34801561031457600080fd5b5061031d611074565b60405161032a9190614d40565b60405180910390f35b34801561033f57600080fd5b5061035a60048036038101906103559190614efd565b611102565b005b61037660048036038101906103719190614e58565b611190565b005b34801561038457600080fd5b5061039f600480360381019061039a9190614da2565b6117a5565b005b3480156103ad57600080fd5b506103b66118ed565b6040516103c39190614d40565b60405180910390f35b3480156103d857600080fd5b506103f360048036038101906103ee919061508b565b61197b565b604051610401929190615177565b60405180910390f35b34801561041657600080fd5b5061041f611a1d565b005b34801561042d57600080fd5b50610436611a31565b60405161044391906151b6565b60405180910390f35b34801561045857600080fd5b50610461611a5b565b60405161046e9190614e11565b60405180910390f35b34801561048357600080fd5b5061049e600480360381019061049991906151d1565b611a83565b6040516104ab9190614e11565b60405180910390f35b3480156104c057600080fd5b506104db60048036038101906104d69190614da2565b611b0a565b005b3480156104e957600080fd5b5061050460048036038101906104ff9190614da2565b611c00565b6040516105119190614e11565b60405180910390f35b34801561052657600080fd5b50610541600480360381019061053c91906151d1565b611c49565b60405161054e9190614e11565b60405180910390f35b34801561056357600080fd5b5061057e60048036038101906105799190614da2565b611dfb565b60405161058b9190614d40565b60405180910390f35b3480156105a057600080fd5b506105bb60048036038101906105b69190614da2565b611ec8565b005b3480156105c957600080fd5b506105e460048036038101906105df91906151d1565b611f54565b6040516105f19190614e11565b60405180910390f35b34801561060657600080fd5b50610621600480360381019061061c9190615211565b611fdb565b005b34801561062f57600080fd5b5061064a600480360381019061064591906151d1565b612289565b6040516106579190614e11565b60405180910390f35b34801561066c57600080fd5b5061068760048036038101906106829190614da2565b612310565b6040516106949190614e11565b60405180910390f35b3480156106a957600080fd5b506106c460048036038101906106bf9190614da2565b612335565b6040516106d19190614d40565b60405180910390f35b3480156106e657600080fd5b5061070160048036038101906106fc91906151d1565b612402565b60405161070e9190614e11565b60405180910390f35b34801561072357600080fd5b5061073e60048036038101906107399190614da2565b61256a565b005b34801561074c57600080fd5b5061076760048036038101906107629190614da2565b612660565b6040516107749190614e11565b60405180910390f35b61079760048036038101906107929190614e58565b6127ce565b005b3480156107a557600080fd5b506107ae612ba3565b005b3480156107bc57600080fd5b506107d760048036038101906107d29190614da2565b612e85565b005b6107f360048036038101906107ee9190614e58565b612f08565b005b34801561080157600080fd5b5061080a61342f565b6040516108179190614e11565b60405180910390f35b34801561082c57600080fd5b5061084760048036038101906108429190614da2565b61355e565b6040516108549190614e11565b60405180910390f35b34801561086957600080fd5b50610884600480360381019061087f9190614da2565b6135f9565b6040516108919190614e11565b60405180910390f35b6060600380548060200260200160405190810160405280929190818152602001828054801561091e57602002820191906000526020600020905b8160009054906101000a900473ffffffffffffffffffffffffffffffffffffffff1673ffffffffffffffffffffffffffffffffffffffff16815260200190600101908083116108d4575b5050505050905090565b6000806000600c60008573ffffffffffffffffffffffffffffffffffffffff1673ffffffffffffffffffffffffffffffffffffffff16815260200190815260200160002060009054906101000a900473ffffffffffffffffffffffffffffffffffffffff1673ffffffffffffffffffffffffffffffffffffffff1663feaf968c6040518163ffffffff1660e01b815260040160a060405180830381865afa1580156109d7573d6000803e3d6000fd5b505050506040513d601f19601f820116820180604052508101906109fb9190615305565b5050509150506000600c60008673ffffffffffffffffffffffffffffffffffffffff1673ffffffffffffffffffffffffffffffffffffffff16815260200190815260200160002060009054906101000a900473ffffffffffffffffffffffffffffffffffffffff1673ffffffffffffffffffffffffffffffffffffffff1663313ce5676040518163ffffffff1660e01b8152600401602060405180830381865afa158015610aad573d6000803e3d6000fd5b505050506040513d601f19601f82011682018060405250810190610ad191906153b9565b60ff1690508181935093505050915091565b6000806000905060005b600380549050811015610c4757600080610b4460038481548110610b1457610b136153e6565b5b9060005260206000200160009054906101000a900473ffffffffffffffffffffffffffffffffffffffff16610928565b915091506010600060038581548110610b6057610b5f6153e6565b5b9060005260206000200160009054906101000a900473ffffffffffffffffffffffffffffffffffffffff1673ffffffffffffffffffffffffffffffffffffffff1673ffffffffffffffffffffffffffffffffffffffff16815260200190815260200160002060008773ffffffffffffffffffffffffffffffffffffffff1673ffffffffffffffffffffffffffffffffffffffff1681526020019081526020016000205481600a610c109190615577565b83610c1b91906155f1565b610c259190615622565b84610c30919061567c565b935050508080610c3f906156d2565b915050610aed565b5080915050919050565b8060008111610c9757806040517f405ec990000000000000000000000000000000000000000000000000000000008152600401610c8e9190614e11565b60405180910390fd5b600260005403610cdc576040517f08c379a0000000000000000000000000000000000000000000000000000000008152600401610cd390615777565b60405180910390fd5b600260008190555060008373ffffffffffffffffffffffffffffffffffffffff166323b872dd3330866040518463ffffffff1660e01b8152600401610d2393929190615797565b6020604051808303816000875af1158015610d42573d6000803e3d6000fd5b505050506040513d601f19601f82011682018060405250810190610d6691906157fa565b905080610d9f576040517f01d2e34800000000000000000000000000000000000000000000000000000000815260040160405180910390fd5b610daa843385613767565b82600a60008673ffffffffffffffffffffffffffffffffffffffff1673ffffffffffffffffffffffffffffffffffffffff16815260200190815260200160002060003373ffffffffffffffffffffffffffffffffffffffff1673ffffffffffffffffffffffffffffffffffffffff1681526020019081526020016000206000828254610e369190615827565b9250508190555082600860008673ffffffffffffffffffffffffffffffffffffffff1673ffffffffffffffffffffffffffffffffffffffff1681526020019081526020016000206000828254610e8c919061567c565b92505081905550610e9d84336139b4565b823373ffffffffffffffffffffffffffffffffffffffff168573ffffffffffffffffffffffffffffffffffffffff167f8e145174de64a4cd1938d6ef99ed04a7e3084ac57eddbf3c9350dce192a8189160405160405180910390a4506001600081905550505050565b6000806000905060005b60038054905081101561106a57600080610f6760038481548110610f3757610f366153e6565b5b9060005260206000200160009054906101000a900473ffffffffffffffffffffffffffffffffffffffff16610928565b915091506009600060038581548110610f8357610f826153e6565b5b9060005260206000200160009054906101000a900473ffffffffffffffffffffffffffffffffffffffff1673ffffffffffffffffffffffffffffffffffffffff1673ffffffffffffffffffffffffffffffffffffffff16815260200190815260200160002060008773ffffffffffffffffffffffffffffffffffffffff1673ffffffffffffffffffffffffffffffffffffffff1681526020019081526020016000205481600a6110339190615577565b8361103e91906155f1565b6110489190615622565b84611053919061567c565b935050508080611062906156d2565b915050610f10565b5080915050919050565b606060048054806020026020016040519081016040528092919081815260200182805480156110f857602002820191906000526020600020905b8160009054906101000a900473ffffffffffffffffffffffffffffffffffffffff1673ffffffffffffffffffffffffffffffffffffffff16815260200190600101908083116110ae575b5050505050905090565b600061111c6040518060200160405280600081525061197b565b50905080611156576040517fd20f01c900000000000000000000000000000000000000000000000000000000815260040160405180910390fd5b6000600580549050111561116d5761116c613adb565b5b6000600480549050111561118457611183613ea9565b5b42600781905550505050565b81600080600090505b60038054905081101561122f578273ffffffffffffffffffffffffffffffffffffffff16600382815481106111d1576111d06153e6565b5b9060005260206000200160009054906101000a900473ffffffffffffffffffffffffffffffffffffffff1673ffffffffffffffffffffffffffffffffffffffff160361121c57600191505b8080611227906156d2565b915050611199565b508061127257816040517f8723d71200000000000000000000000000000000000000000000000000000000815260040161126991906151b6565b60405180910390fd5b600080600090505b60038054905081101561142757600060096000600384815481106112a1576112a06153e6565b5b9060005260206000200160009054906101000a900473ffffffffffffffffffffffffffffffffffffffff1673ffffffffffffffffffffffffffffffffffffffff1673ffffffffffffffffffffffffffffffffffffffff16815260200190815260200160002060003373ffffffffffffffffffffffffffffffffffffffff1673ffffffffffffffffffffffffffffffffffffffff16815260200190815260200160002054118061140a575060006010600060038481548110611365576113646153e6565b5b9060005260206000200160009054906101000a900473ffffffffffffffffffffffffffffffffffffffff1673ffffffffffffffffffffffffffffffffffffffff1673ffffffffffffffffffffffffffffffffffffffff16815260200190815260200160002060003373ffffffffffffffffffffffffffffffffffffffff1673ffffffffffffffffffffffffffffffffffffffff16815260200190815260200160002054115b1561141457600191505b808061141f906156d2565b91505061127a565b508061145f576040517ff418fde300000000000000000000000000000000000000000000000000000000815260040160405180910390fd5b83600081116114a557806040517f405ec99000000000000000000000000000000000000000000000000000000000815260040161149c9190614e11565b60405180910390fd5b6002600054036114ea576040517f08c379a00000000000000000000000000000000000000000000000000000000081526004016114e190615777565b60405180910390fd5b60026000819055506000600860008873ffffffffffffffffffffffffffffffffffffffff1673ffffffffffffffffffffffffffffffffffffffff168152602001908152602001600020541161157657856040517f79867f5e00000000000000000000000000000000000000000000000000000000815260040161156d91906151b6565b60405180910390fd5b611581863387614277565b61158a336142fe565b6115d2600e60003373ffffffffffffffffffffffffffffffffffffffff1673ffffffffffffffffffffffffffffffffffffffff16815260200190815260200160002087614482565b84600a60008873ffffffffffffffffffffffffffffffffffffffff1673ffffffffffffffffffffffffffffffffffffffff16815260200190815260200160002060003373ffffffffffffffffffffffffffffffffffffffff1673ffffffffffffffffffffffffffffffffffffffff168152602001908152602001600020600082825461165e919061567c565b9250508190555084600860008873ffffffffffffffffffffffffffffffffffffffff1673ffffffffffffffffffffffffffffffffffffffff16815260200190815260200160002060008282546116b49190615827565b925050819055508573ffffffffffffffffffffffffffffffffffffffff1663a9059cbb33876040518363ffffffff1660e01b81526004016116f692919061585b565b6020604051808303816000875af1158015611715573d6000803e3d6000fd5b505050506040513d601f19601f8201168201806040525081019061173991906157fa565b50843373ffffffffffffffffffffffffffffffffffffffff168773ffffffffffffffffffffffffffffffffffffffff167fbac7ef7476b8ca23cee38d6cd192ffe52e03ef25c633ca23765fdda1dde653c660405160405180910390a46001600081905550505050505050565b33600080600090505b600680549050811015611844578273ffffffffffffffffffffffffffffffffffffffff16600682815481106117e6576117e56153e6565b5b9060005260206000200160009054906101000a900473ffffffffffffffffffffffffffffffffffffffff1673ffffffffffffffffffffffffffffffffffffffff160361183157600191505b808061183c906156d2565b9150506117ae565b5080611885576040517f08c379a000000000000000000000000000000000000000000000000000000000815260040161187c906158d0565b60405180910390fd5b6006839080600181540180825580915050600190039060005260206000200160009091909190916101000a81548173ffffffffffffffffffffffffffffffffffffffff021916908373ffffffffffffffffffffffffffffffffffffffff160217905550505050565b6060600580548060200260200160405190810160405280929190818152602001828054801561197157602002820191906000526020600020905b8160009054906101000a900473ffffffffffffffffffffffffffffffffffffffff1673ffffffffffffffffffffffffffffffffffffffff1681526020019060010190808311611927575b5050505050905090565b60006060600080600580549050118061199957506000600480549050115b905060007f0000000000000000000000000000000000000000000000000000000000000000600754426119cc9190615827565b1190508180156119d95750805b9350836040518060400160405280600381526020017f3078300000000000000000000000000000000000000000000000000000000000815250935093505050915091565b611a25614602565b611a2f6000614680565b565b6000600160009054906101000a900473ffffffffffffffffffffffffffffffffffffffff16905090565b60007f0000000000000000000000000000000000000000000000000000000000000000905090565b6000600a60008473ffffffffffffffffffffffffffffffffffffffff1673ffffffffffffffffffffffffffffffffffffffff16815260200190815260200160002060008373ffffffffffffffffffffffffffffffffffffffff1673ffffffffffffffffffffffffffffffffffffffff16815260200190815260200160002054905092915050565b6000600f60003373ffffffffffffffffffffffffffffffffffffffff1673ffffffffffffffffffffffffffffffffffffffff16815260200190815260200160002060008373ffffffffffffffffffffffffffffffffffffffff1673ffffffffffffffffffffffffffffffffffffffff16815260200190815260200160002060006101000a81548160ff021916908315150217905550600015158173ffffffffffffffffffffffffffffffffffffffff163373ffffffffffffffffffffffffffffffffffffffff167fd606a3476368846f06df0791eef492ec0f2be479134cc7bfac8a9fdc8e83c3a560405160405180910390a450565b6000600860008373ffffffffffffffffffffffffffffffffffffffff1673ffffffffffffffffffffffffffffffffffffffff168152602001908152602001600020549050919050565b600080600b60008573ffffffffffffffffffffffffffffffffffffffff1673ffffffffffffffffffffffffffffffffffffffff16815260200190815260200160002060008473ffffffffffffffffffffffffffffffffffffffff1673ffffffffffffffffffffffffffffffffffffffff168152602001908152602001600020546050600a60008773ffffffffffffffffffffffffffffffffffffffff1673ffffffffffffffffffffffffffffffffffffffff16815260200190815260200160002060008673ffffffffffffffffffffffffffffffffffffffff1673ffffffffffffffffffffffffffffffffffffffff168152602001908152602001600020546064611d549190615622565b611d5e91906155f1565b611d68919061567c565b600960008673ffffffffffffffffffffffffffffffffffffffff1673ffffffffffffffffffffffffffffffffffffffff16815260200190815260200160002060008573ffffffffffffffffffffffffffffffffffffffff1673ffffffffffffffffffffffffffffffffffffffff16815260200190815260200160002054611def9190615827565b90508091505092915050565b6060600d60008373ffffffffffffffffffffffffffffffffffffffff1673ffffffffffffffffffffffffffffffffffffffff168152602001908152602001600020805480602002602001604051908101604052809291908181526020018280548015611ebc57602002820191906000526020600020905b8160009054906101000a900473ffffffffffffffffffffffffffffffffffffffff1673ffffffffffffffffffffffffffffffffffffffff1681526020019060010190808311611e72575b50505050509050919050565b8073ffffffffffffffffffffffffffffffffffffffff1663a9059cbb3369021e19e0c9bab24000006040518363ffffffff1660e01b8152600401611f0d929190615935565b6020604051808303816000875af1158015611f2c573d6000803e3d6000fd5b505050506040513d601f19601f82011682018060405250810190611f5091906157fa565b5050565b6000600960008473ffffffffffffffffffffffffffffffffffffffff1673ffffffffffffffffffffffffffffffffffffffff16815260200190815260200160002060008373ffffffffffffffffffffffffffffffffffffffff1673ffffffffffffffffffffffffffffffffffffffff16815260200190815260200160002054905092915050565b33600080600090505b60068054905081101561207a578273ffffffffffffffffffffffffffffffffffffffff166006828154811061201c5761201b6153e6565b5b9060005260206000200160009054906101000a900473ffffffffffffffffffffffffffffffffffffffff1673ffffffffffffffffffffffffffffffffffffffff160361206757600191505b8080612072906156d2565b915050611fe4565b50806120bb576040517f08c379a00000000000000000000000000000000000000000000000000000000081526004016120b2906158d0565b60405180910390fd5b82600b60008873ffffffffffffffffffffffffffffffffffffffff1673ffffffffffffffffffffffffffffffffffffffff16815260200190815260200160002060008773ffffffffffffffffffffffffffffffffffffffff1673ffffffffffffffffffffffffffffffffffffffff1681526020019081526020016000206000828254612147919061567c565b9250508190555082601060008873ffffffffffffffffffffffffffffffffffffffff1673ffffffffffffffffffffffffffffffffffffffff16815260200190815260200160002060008673ffffffffffffffffffffffffffffffffffffffff1673ffffffffffffffffffffffffffffffffffffffff16815260200190815260200160002060008282546121da919061567c565b92505081905550601160008573ffffffffffffffffffffffffffffffffffffffff1673ffffffffffffffffffffffffffffffffffffffff168152602001908152602001600020859080600181540180825580915050600190039060005260206000200160009091909190916101000a81548173ffffffffffffffffffffffffffffffffffffffff021916908373ffffffffffffffffffffffffffffffffffffffff160217905550505050505050565b6000600b60008473ffffffffffffffffffffffffffffffffffffffff1673ffffffffffffffffffffffffffffffffffffffff16815260200190815260200160002060008373ffffffffffffffffffffffffffffffffffffffff1673ffffffffffffffffffffffffffffffffffffffff16815260200190815260200160002054905092915050565b600061231b82610ae3565b61232483610f06565b61232e919061567c565b9050919050565b6060600e60008373ffffffffffffffffffffffffffffffffffffffff1673ffffffffffffffffffffffffffffffffffffffff1681526020019081526020016000208054806020026020016040519081016040528092919081815260200182805480156123f657602002820191906000526020600020905b8160009054906101000a900473ffffffffffffffffffffffffffffffffffffffff1673ffffffffffffffffffffffffffffffffffffffff16815260200190600101908083116123ac575b50505050509050919050565b60008061240e836135f9565b605061241985612660565b60646124259190615622565b61242f91906155f1565b612439919061567c565b61244284610ae3565b61244b85610f06565b612455919061567c565b61245f9190615827565b905060008061246d86610928565b915091506000601060008873ffffffffffffffffffffffffffffffffffffffff1673ffffffffffffffffffffffffffffffffffffffff16815260200190815260200160002060008773ffffffffffffffffffffffffffffffffffffffff1673ffffffffffffffffffffffffffffffffffffffff1681526020019081526020016000205411156125235780600a6125039190615577565b8261250e91906155f1565b8361251991906155f1565b9350505050612564565b6064605082600a6125349190615577565b8461253f91906155f1565b8561254a91906155f1565b6125549190615622565b61255e91906155f1565b93505050505b92915050565b6001600f60003373ffffffffffffffffffffffffffffffffffffffff1673ffffffffffffffffffffffffffffffffffffffff16815260200190815260200160002060008373ffffffffffffffffffffffffffffffffffffffff1673ffffffffffffffffffffffffffffffffffffffff16815260200190815260200160002060006101000a81548160ff021916908315150217905550600115158173ffffffffffffffffffffffffffffffffffffffff163373ffffffffffffffffffffffffffffffffffffffff167fd606a3476368846f06df0791eef492ec0f2be479134cc7bfac8a9fdc8e83c3a560405160405180910390a450565b6000806000905060005b6003805490508110156127c4576000806126c160038481548110612691576126906153e6565b5b9060005260206000200160009054906101000a900473ffffffffffffffffffffffffffffffffffffffff16610928565b91509150600a6000600385815481106126dd576126dc6153e6565b5b9060005260206000200160009054906101000a900473ffffffffffffffffffffffffffffffffffffffff1673ffffffffffffffffffffffffffffffffffffffff1673ffffffffffffffffffffffffffffffffffffffff16815260200190815260200160002060008773ffffffffffffffffffffffffffffffffffffffff1673ffffffffffffffffffffffffffffffffffffffff1681526020019081526020016000205481600a61278d9190615577565b8361279891906155f1565b6127a29190615622565b846127ad919061567c565b9350505080806127bc906156d2565b91505061266a565b5080915050919050565b81600080600090505b60038054905081101561286d578273ffffffffffffffffffffffffffffffffffffffff166003828154811061280f5761280e6153e6565b5b9060005260206000200160009054906101000a900473ffffffffffffffffffffffffffffffffffffffff1673ffffffffffffffffffffffffffffffffffffffff160361285a57600191505b8080612865906156d2565b9150506127d7565b50806128b057816040517f8723d7120000000000000000000000000000000000000000000000000000000081526004016128a791906151b6565b60405180910390fd5b82600081116128f657806040517f405ec9900000000000000000000000000000000000000000000000000000000081526004016128ed9190614e11565b60405180910390fd5b60026000540361293b576040517f08c379a000000000000000000000000000000000000000000000000000000000815260040161293290615777565b60405180910390fd5b600260008190555060008573ffffffffffffffffffffffffffffffffffffffff166323b872dd3330886040518463ffffffff1660e01b815260040161298293929190615797565b6020604051808303816000875af11580156129a1573d6000803e3d6000fd5b505050506040513d601f19601f820116820180604052508101906129c591906157fa565b9050806129fe576040517f01d2e34800000000000000000000000000000000000000000000000000000000815260040160405180910390fd5b84600860008873ffffffffffffffffffffffffffffffffffffffff1673ffffffffffffffffffffffffffffffffffffffff1681526020019081526020016000206000828254612a4d919061567c565b9250508190555084600960008873ffffffffffffffffffffffffffffffffffffffff1673ffffffffffffffffffffffffffffffffffffffff16815260200190815260200160002060003373ffffffffffffffffffffffffffffffffffffffff1673ffffffffffffffffffffffffffffffffffffffff1681526020019081526020016000206000828254612ae0919061567c565b92505081905550612af033614746565b612b38600d60003373ffffffffffffffffffffffffffffffffffffffff1673ffffffffffffffffffffffffffffffffffffffff16815260200190815260200160002087614482565b843373ffffffffffffffffffffffffffffffffffffffff168773ffffffffffffffffffffffffffffffffffffffff167f5df8b54f38216384ee108b037a3a0e3b7d678f14f3e251d3604ce82b6e1e972560405160405180910390a45060016000819055505050505050565b612bab614602565b60005b600580549050811015612e8257612c0260058281548110612bd257612bd16153e6565b5b9060005260206000200160009054906101000a900473ffffffffffffffffffffffffffffffffffffffff16610f06565b612c4960058381548110612c1957612c186153e6565b5b9060005260206000200160009054906101000a900473ffffffffffffffffffffffffffffffffffffffff16612660565b10612e6f5760005b600380549050811015612e6d5760006009600060038481548110612c7857612c776153e6565b5b9060005260206000200160009054906101000a900473ffffffffffffffffffffffffffffffffffffffff1673ffffffffffffffffffffffffffffffffffffffff1673ffffffffffffffffffffffffffffffffffffffff168152602001908152602001600020600060058581548110612cf357612cf26153e6565b5b9060005260206000200160009054906101000a900473ffffffffffffffffffffffffffffffffffffffff1673ffffffffffffffffffffffffffffffffffffffff1673ffffffffffffffffffffffffffffffffffffffff168152602001908152602001600020819055506000600a600060038481548110612d7657612d756153e6565b5b9060005260206000200160009054906101000a900473ffffffffffffffffffffffffffffffffffffffff1673ffffffffffffffffffffffffffffffffffffffff1673ffffffffffffffffffffffffffffffffffffffff168152602001908152602001600020600060058581548110612df157612df06153e6565b5b9060005260206000200160009054906101000a900473ffffffffffffffffffffffffffffffffffffffff1673ffffffffffffffffffffffffffffffffffffffff1673ffffffffffffffffffffffffffffffffffffffff168152602001908152602001600020819055508080612e65906156d2565b915050612c51565b505b8080612e7a906156d2565b915050612bae565b50565b612e8d614602565b600073ffffffffffffffffffffffffffffffffffffffff168173ffffffffffffffffffffffffffffffffffffffff1603612efc576040517f08c379a0000000000000000000000000000000000000000000000000000000008152600401612ef3906159d0565b60405180910390fd5b612f0581614680565b50565b600080600090505b6003805490508110156130bd5760006009600060038481548110612f3757612f366153e6565b5b9060005260206000200160009054906101000a900473ffffffffffffffffffffffffffffffffffffffff1673ffffffffffffffffffffffffffffffffffffffff1673ffffffffffffffffffffffffffffffffffffffff16815260200190815260200160002060003373ffffffffffffffffffffffffffffffffffffffff1673ffffffffffffffffffffffffffffffffffffffff1681526020019081526020016000205411806130a0575060006010600060038481548110612ffb57612ffa6153e6565b5b9060005260206000200160009054906101000a900473ffffffffffffffffffffffffffffffffffffffff1673ffffffffffffffffffffffffffffffffffffffff1673ffffffffffffffffffffffffffffffffffffffff16815260200190815260200160002060003373ffffffffffffffffffffffffffffffffffffffff1673ffffffffffffffffffffffffffffffffffffffff16815260200190815260200160002054115b156130aa57600191505b80806130b5906156d2565b915050612f10565b50806130f5576040517ff418fde300000000000000000000000000000000000000000000000000000000815260040160405180910390fd5b816000811161313b57806040517f405ec9900000000000000000000000000000000000000000000000000000000081526004016131329190614e11565b60405180910390fd5b600260005403613180576040517f08c379a000000000000000000000000000000000000000000000000000000000815260040161317790615777565b60405180910390fd5b6002600081905550600960008573ffffffffffffffffffffffffffffffffffffffff1673ffffffffffffffffffffffffffffffffffffffff16815260200190815260200160002060003373ffffffffffffffffffffffffffffffffffffffff1673ffffffffffffffffffffffffffffffffffffffff1681526020019081526020016000205483111561324957826040517f91edbd090000000000000000000000000000000000000000000000000000000081526004016132409190614e11565b60405180910390fd5b6132548433856148ca565b82600960008673ffffffffffffffffffffffffffffffffffffffff1673ffffffffffffffffffffffffffffffffffffffff16815260200190815260200160002060003373ffffffffffffffffffffffffffffffffffffffff1673ffffffffffffffffffffffffffffffffffffffff16815260200190815260200160002060008282546132e09190615827565b9250508190555082600860008673ffffffffffffffffffffffffffffffffffffffff1673ffffffffffffffffffffffffffffffffffffffff16815260200190815260200160002060008282546133369190615827565b92505081905550613347843361499a565b8373ffffffffffffffffffffffffffffffffffffffff1663a9059cbb33856040518363ffffffff1660e01b815260040161338292919061585b565b6020604051808303816000875af11580156133a1573d6000803e3d6000fd5b505050506040513d601f19601f820116820180604052508101906133c591906157fa565b50823373ffffffffffffffffffffffffffffffffffffffff168573ffffffffffffffffffffffffffffffffffffffff167f8210728e7c071f615b840ee026032693858fbcd5e5359e67e438c890f59e562060405160405180910390a4600160008190555050505050565b6000806000905060005b60038054905081101561355657600080613490600384815481106134605761345f6153e6565b5b9060005260206000200160009054906101000a900473ffffffffffffffffffffffffffffffffffffffff16610928565b9150915060086000600385815481106134ac576134ab6153e6565b5b9060005260206000200160009054906101000a900473ffffffffffffffffffffffffffffffffffffffff1673ffffffffffffffffffffffffffffffffffffffff1673ffffffffffffffffffffffffffffffffffffffff1681526020019081526020016000205481600a61351f9190615577565b8361352a91906155f1565b6135349190615622565b8461353f919061567c565b93505050808061354e906156d2565b915050613439565b508091505090565b60008061356a836135f9565b605061357585612660565b60646135819190615622565b61358b91906155f1565b613595919061567c565b61359e84610ae3565b6135a785610f06565b6135b1919061567c565b6135bb9190615827565b905060006135c884610ae3565b11156135d757809150506135f4565b60646050826135e69190615622565b6135f091906155f1565b9150505b919050565b6000806000905060005b60038054905081101561375d5760008061365a6003848154811061362a576136296153e6565b5b9060005260206000200160009054906101000a900473ffffffffffffffffffffffffffffffffffffffff16610928565b91509150600b600060038581548110613676576136756153e6565b5b9060005260206000200160009054906101000a900473ffffffffffffffffffffffffffffffffffffffff1673ffffffffffffffffffffffffffffffffffffffff1673ffffffffffffffffffffffffffffffffffffffff16815260200190815260200160002060008773ffffffffffffffffffffffffffffffffffffffff1673ffffffffffffffffffffffffffffffffffffffff1681526020019081526020016000205481600a6137269190615577565b8361373191906155f1565b61373b9190615622565b84613746919061567c565b935050508080613755906156d2565b915050613603565b5080915050919050565b6000601060008573ffffffffffffffffffffffffffffffffffffffff1673ffffffffffffffffffffffffffffffffffffffff16815260200190815260200160002060008473ffffffffffffffffffffffffffffffffffffffff1673ffffffffffffffffffffffffffffffffffffffff1681526020019081526020016000205411156139af576000601160008473ffffffffffffffffffffffffffffffffffffffff1673ffffffffffffffffffffffffffffffffffffffff168152602001908152602001600020805490508261383c91906155f1565b905060005b601160008573ffffffffffffffffffffffffffffffffffffffff1673ffffffffffffffffffffffffffffffffffffffff168152602001908152602001600020805490508110156139ac5781600b60008773ffffffffffffffffffffffffffffffffffffffff1673ffffffffffffffffffffffffffffffffffffffff1681526020019081526020016000206000601160008873ffffffffffffffffffffffffffffffffffffffff1673ffffffffffffffffffffffffffffffffffffffff168152602001908152602001600020848154811061391e5761391d6153e6565b5b9060005260206000200160009054906101000a900473ffffffffffffffffffffffffffffffffffffffff1673ffffffffffffffffffffffffffffffffffffffff1673ffffffffffffffffffffffffffffffffffffffff16815260200190815260200160002060008282546139929190615827565b9250508190555080806139a4906156d2565b915050613841565b50505b505050565b6000600a60008473ffffffffffffffffffffffffffffffffffffffff1673ffffffffffffffffffffffffffffffffffffffff16815260200190815260200160002060008373ffffffffffffffffffffffffffffffffffffffff1673ffffffffffffffffffffffffffffffffffffffff1681526020019081526020016000205411613a8157613a80600e60008373ffffffffffffffffffffffffffffffffffffffff1673ffffffffffffffffffffffffffffffffffffffff16815260200190815260200160002083614ac1565b5b6000600e60008373ffffffffffffffffffffffffffffffffffffffff1673ffffffffffffffffffffffffffffffffffffffff1681526020019081526020016000208054905003613ad757613ad6600582614ac1565b5b5050565b60005b600580549050811015613ea65760005b600e600060058481548110613b0657613b056153e6565b5b9060005260206000200160009054906101000a900473ffffffffffffffffffffffffffffffffffffffff1673ffffffffffffffffffffffffffffffffffffffff1673ffffffffffffffffffffffffffffffffffffffff16815260200190815260200160002080549050811015613e92576032600a6000600e600060058781548110613b9457613b936153e6565b5b9060005260206000200160009054906101000a900473ffffffffffffffffffffffffffffffffffffffff1673ffffffffffffffffffffffffffffffffffffffff1673ffffffffffffffffffffffffffffffffffffffff1681526020019081526020016000208481548110613c0b57613c0a6153e6565b5b9060005260206000200160009054906101000a900473ffffffffffffffffffffffffffffffffffffffff1673ffffffffffffffffffffffffffffffffffffffff1673ffffffffffffffffffffffffffffffffffffffff168152602001908152602001600020600060058581548110613c8657613c856153e6565b5b9060005260206000200160009054906101000a900473ffffffffffffffffffffffffffffffffffffffff1673ffffffffffffffffffffffffffffffffffffffff1673ffffffffffffffffffffffffffffffffffffffff16815260200190815260200160002054613cf691906155f1565b600a6000600e600060058781548110613d1257613d116153e6565b5b9060005260206000200160009054906101000a900473ffffffffffffffffffffffffffffffffffffffff1673ffffffffffffffffffffffffffffffffffffffff1673ffffffffffffffffffffffffffffffffffffffff1681526020019081526020016000208481548110613d8957613d886153e6565b5b9060005260206000200160009054906101000a900473ffffffffffffffffffffffffffffffffffffffff1673ffffffffffffffffffffffffffffffffffffffff1673ffffffffffffffffffffffffffffffffffffffff168152602001908152602001600020600060058581548110613e0457613e036153e6565b5b9060005260206000200160009054906101000a900473ffffffffffffffffffffffffffffffffffffffff1673ffffffffffffffffffffffffffffffffffffffff1673ffffffffffffffffffffffffffffffffffffffff1681526020019081526020016000206000828254613e78919061567c565b925050819055508080613e8a906156d2565b915050613aee565b508080613e9e906156d2565b915050613ade565b50565b60005b6004805490508110156142745760005b600d600060048481548110613ed457613ed36153e6565b5b9060005260206000200160009054906101000a900473ffffffffffffffffffffffffffffffffffffffff1673ffffffffffffffffffffffffffffffffffffffff1673ffffffffffffffffffffffffffffffffffffffff1681526020019081526020016000208054905081101561426057606460096000600d600060048781548110613f6257613f616153e6565b5b9060005260206000200160009054906101000a900473ffffffffffffffffffffffffffffffffffffffff1673ffffffffffffffffffffffffffffffffffffffff1673ffffffffffffffffffffffffffffffffffffffff1681526020019081526020016000208481548110613fd957613fd86153e6565b5b9060005260206000200160009054906101000a900473ffffffffffffffffffffffffffffffffffffffff1673ffffffffffffffffffffffffffffffffffffffff1673ffffffffffffffffffffffffffffffffffffffff168152602001908152602001600020600060048581548110614054576140536153e6565b5b9060005260206000200160009054906101000a900473ffffffffffffffffffffffffffffffffffffffff1673ffffffffffffffffffffffffffffffffffffffff1673ffffffffffffffffffffffffffffffffffffffff168152602001908152602001600020546140c491906155f1565b60096000600d6000600487815481106140e0576140df6153e6565b5b9060005260206000200160009054906101000a900473ffffffffffffffffffffffffffffffffffffffff1673ffffffffffffffffffffffffffffffffffffffff1673ffffffffffffffffffffffffffffffffffffffff1681526020019081526020016000208481548110614157576141566153e6565b5b9060005260206000200160009054906101000a900473ffffffffffffffffffffffffffffffffffffffff1673ffffffffffffffffffffffffffffffffffffffff1673ffffffffffffffffffffffffffffffffffffffff1681526020019081526020016000206000600485815481106141d2576141d16153e6565b5b9060005260206000200160009054906101000a900473ffffffffffffffffffffffffffffffffffffffff1673ffffffffffffffffffffffffffffffffffffffff1673ffffffffffffffffffffffffffffffffffffffff1681526020019081526020016000206000828254614246919061567c565b925050819055508080614258906156d2565b915050613ebc565b50808061426c906156d2565b915050613eac565b50565b60006142828361355e565b905060008061429086610928565b91509150600081600a6142a39190615577565b836142ae91906155f1565b856142b99190615622565b9050838111156142f5576040517f47820a6500000000000000000000000000000000000000000000000000000000815260040160405180910390fd5b50505050505050565b600060058054905003614373576005819080600181540180825580915050600190039060005260206000200160009091909190916101000a81548173ffffffffffffffffffffffffffffffffffffffff021916908373ffffffffffffffffffffffffffffffffffffffff16021790555061447f565b60006001905060005b600580549050811015614412578273ffffffffffffffffffffffffffffffffffffffff16600582815481106143b4576143b36153e6565b5b9060005260206000200160009054906101000a900473ffffffffffffffffffffffffffffffffffffffff1673ffffffffffffffffffffffffffffffffffffffff16036143ff57600091505b808061440a906156d2565b91505061437c565b50801561447d576005829080600181540180825580915050600190039060005260206000200160009091909190916101000a81548173ffffffffffffffffffffffffffffffffffffffff021916908373ffffffffffffffffffffffffffffffffffffffff1602179055505b505b50565b60008280549050036144f55781819080600181540180825580915050600190039060005260206000200160009091909190916101000a81548173ffffffffffffffffffffffffffffffffffffffff021916908373ffffffffffffffffffffffffffffffffffffffff1602179055506145fe565b60006001905060005b8380549050811015614592578273ffffffffffffffffffffffffffffffffffffffff16848281548110614534576145336153e6565b5b9060005260206000200160009054906101000a900473ffffffffffffffffffffffffffffffffffffffff1673ffffffffffffffffffffffffffffffffffffffff160361457f57600091505b808061458a906156d2565b9150506144fe565b5080156145fc5782829080600181540180825580915050600190039060005260206000200160009091909190916101000a81548173ffffffffffffffffffffffffffffffffffffffff021916908373ffffffffffffffffffffffffffffffffffffffff1602179055505b505b5050565b61460a614c48565b73ffffffffffffffffffffffffffffffffffffffff16614628611a31565b73ffffffffffffffffffffffffffffffffffffffff161461467e576040517f08c379a000000000000000000000000000000000000000000000000000000000815260040161467590615a3c565b60405180910390fd5b565b6000600160009054906101000a900473ffffffffffffffffffffffffffffffffffffffff16905081600160006101000a81548173ffffffffffffffffffffffffffffffffffffffff021916908373ffffffffffffffffffffffffffffffffffffffff1602179055508173ffffffffffffffffffffffffffffffffffffffff168173ffffffffffffffffffffffffffffffffffffffff167f8be0079c531659141344cd1fd0a4f28419497f9722a3daafe3b4186f6b6457e060405160405180910390a35050565b6000600480549050036147bb576004819080600181540180825580915050600190039060005260206000200160009091909190916101000a81548173ffffffffffffffffffffffffffffffffffffffff021916908373ffffffffffffffffffffffffffffffffffffffff1602179055506148c7565b60006001905060005b60048054905081101561485a578273ffffffffffffffffffffffffffffffffffffffff16600482815481106147fc576147fb6153e6565b5b9060005260206000200160009054906101000a900473ffffffffffffffffffffffffffffffffffffffff1673ffffffffffffffffffffffffffffffffffffffff160361484757600091505b8080614852906156d2565b9150506147c4565b5080156148c5576004829080600181540180825580915050600190039060005260206000200160009091909190916101000a81548173ffffffffffffffffffffffffffffffffffffffff021916908373ffffffffffffffffffffffffffffffffffffffff1602179055505b505b50565b60006148d5836135f9565b60506148e085612660565b60646148ec9190615622565b6148f691906155f1565b614900919061567c565b61490984610f06565b6149139190615827565b905060008061492186610928565b91509150600081600a6149349190615577565b8361493f91906155f1565b8561494a9190615622565b90508381111561499157846040517f15e5f1b60000000000000000000000000000000000000000000000000000000081526004016149889190614e11565b60405180910390fd5b50505050505050565b6000600960008473ffffffffffffffffffffffffffffffffffffffff1673ffffffffffffffffffffffffffffffffffffffff16815260200190815260200160002060008373ffffffffffffffffffffffffffffffffffffffff1673ffffffffffffffffffffffffffffffffffffffff1681526020019081526020016000205411614a6757614a66600d60008373ffffffffffffffffffffffffffffffffffffffff1673ffffffffffffffffffffffffffffffffffffffff16815260200190815260200160002083614ac1565b5b6000600d60008373ffffffffffffffffffffffffffffffffffffffff1673ffffffffffffffffffffffffffffffffffffffff1681526020019081526020016000208054905003614abd57614abc600482614ac1565b5b5050565b60005b8280549050811015614c43578173ffffffffffffffffffffffffffffffffffffffff16838281548110614afa57614af96153e6565b5b9060005260206000200160009054906101000a900473ffffffffffffffffffffffffffffffffffffffff1673ffffffffffffffffffffffffffffffffffffffff1603614c30578260018480549050614b529190615827565b81548110614b6357614b626153e6565b5b9060005260206000200160009054906101000a900473ffffffffffffffffffffffffffffffffffffffff16838281548110614ba157614ba06153e6565b5b9060005260206000200160006101000a81548173ffffffffffffffffffffffffffffffffffffffff021916908373ffffffffffffffffffffffffffffffffffffffff16021790555082805480614bfa57614bf9615a5c565b5b6001900381819060005260206000200160006101000a81549073ffffffffffffffffffffffffffffffffffffffff021916905590555b8080614c3b906156d2565b915050614ac4565b505050565b600033905090565b600081519050919050565b600082825260208201905092915050565b6000819050602082019050919050565b600073ffffffffffffffffffffffffffffffffffffffff82169050919050565b6000614ca782614c7c565b9050919050565b614cb781614c9c565b82525050565b6000614cc98383614cae565b60208301905092915050565b6000602082019050919050565b6000614ced82614c50565b614cf78185614c5b565b9350614d0283614c6c565b8060005b83811015614d33578151614d1a8882614cbd565b9750614d2583614cd5565b925050600181019050614d06565b5085935050505092915050565b60006020820190508181036000830152614d5a8184614ce2565b905092915050565b6000604051905090565b600080fd5b600080fd5b614d7f81614c9c565b8114614d8a57600080fd5b50565b600081359050614d9c81614d76565b92915050565b600060208284031215614db857614db7614d6c565b5b6000614dc684828501614d8d565b91505092915050565b6000819050919050565b614de281614dcf565b82525050565b6000604082019050614dfd6000830185614dd9565b614e0a6020830184614dd9565b9392505050565b6000602082019050614e266000830184614dd9565b92915050565b614e3581614dcf565b8114614e4057600080fd5b50565b600081359050614e5281614e2c565b92915050565b60008060408385031215614e6f57614e6e614d6c565b5b6000614e7d85828601614d8d565b9250506020614e8e85828601614e43565b9150509250929050565b600080fd5b600080fd5b600080fd5b60008083601f840112614ebd57614ebc614e98565b5b8235905067ffffffffffffffff811115614eda57614ed9614e9d565b5b602083019150836001820283011115614ef657614ef5614ea2565b5b9250929050565b60008060208385031215614f1457614f13614d6c565b5b600083013567ffffffffffffffff811115614f3257614f31614d71565b5b614f3e85828601614ea7565b92509250509250929050565b600080fd5b6000601f19601f8301169050919050565b7f4e487b7100000000000000000000000000000000000000000000000000000000600052604160045260246000fd5b614f9882614f4f565b810181811067ffffffffffffffff82111715614fb757614fb6614f60565b5b80604052505050565b6000614fca614d62565b9050614fd68282614f8f565b919050565b600067ffffffffffffffff821115614ff657614ff5614f60565b5b614fff82614f4f565b9050602081019050919050565b82818337600083830152505050565b600061502e61502984614fdb565b614fc0565b90508281526020810184848401111561504a57615049614f4a565b5b61505584828561500c565b509392505050565b600082601f83011261507257615071614e98565b5b813561508284826020860161501b565b91505092915050565b6000602082840312156150a1576150a0614d6c565b5b600082013567ffffffffffffffff8111156150bf576150be614d71565b5b6150cb8482850161505d565b91505092915050565b60008115159050919050565b6150e9816150d4565b82525050565b600081519050919050565b600082825260208201905092915050565b60005b8381101561512957808201518184015260208101905061510e565b83811115615138576000848401525b50505050565b6000615149826150ef565b61515381856150fa565b935061516381856020860161510b565b61516c81614f4f565b840191505092915050565b600060408201905061518c60008301856150e0565b818103602083015261519e818461513e565b90509392505050565b6151b081614c9c565b82525050565b60006020820190506151cb60008301846151a7565b92915050565b600080604083850312156151e8576151e7614d6c565b5b60006151f685828601614d8d565b925050602061520785828601614d8d565b9150509250929050565b6000806000806080858703121561522b5761522a614d6c565b5b600061523987828801614d8d565b945050602061524a87828801614d8d565b935050604061525b87828801614d8d565b925050606061526c87828801614e43565b91505092959194509250565b600069ffffffffffffffffffff82169050919050565b61529781615278565b81146152a257600080fd5b50565b6000815190506152b48161528e565b92915050565b6000819050919050565b6152cd816152ba565b81146152d857600080fd5b50565b6000815190506152ea816152c4565b92915050565b6000815190506152ff81614e2c565b92915050565b600080600080600060a0868803121561532157615320614d6c565b5b600061532f888289016152a5565b9550506020615340888289016152db565b9450506040615351888289016152f0565b9350506060615362888289016152f0565b9250506080615373888289016152a5565b9150509295509295909350565b600060ff82169050919050565b61539681615380565b81146153a157600080fd5b50565b6000815190506153b38161538d565b92915050565b6000602082840312156153cf576153ce614d6c565b5b60006153dd848285016153a4565b91505092915050565b7f4e487b7100000000000000000000000000000000000000000000000000000000600052603260045260246000fd5b7f4e487b7100000000000000000000000000000000000000000000000000000000600052601160045260246000fd5b60008160011c9050919050565b6000808291508390505b600185111561549b5780860481111561547757615476615415565b5b60018516156154865780820291505b808102905061549485615444565b945061545b565b94509492505050565b6000826154b45760019050615570565b816154c25760009050615570565b81600181146154d857600281146154e257615511565b6001915050615570565b60ff8411156154f4576154f3615415565b5b8360020a91508482111561550b5761550a615415565b5b50615570565b5060208310610133831016604e8410600b84101617156155465782820a90508381111561554157615540615415565b5b615570565b6155538484846001615451565b9250905081840481111561556a57615569615415565b5b81810290505b9392505050565b600061558282614dcf565b915061558d83614dcf565b92506155ba7fffffffffffffffffffffffffffffffffffffffffffffffffffffffffffffffff84846154a4565b905092915050565b7f4e487b7100000000000000000000000000000000000000000000000000000000600052601260045260246000fd5b60006155fc82614dcf565b915061560783614dcf565b925082615617576156166155c2565b5b828204905092915050565b600061562d82614dcf565b915061563883614dcf565b9250817fffffffffffffffffffffffffffffffffffffffffffffffffffffffffffffffff048311821515161561567157615670615415565b5b828202905092915050565b600061568782614dcf565b915061569283614dcf565b9250827fffffffffffffffffffffffffffffffffffffffffffffffffffffffffffffffff038211156156c7576156c6615415565b5b828201905092915050565b60006156dd82614dcf565b91507fffffffffffffffffffffffffffffffffffffffffffffffffffffffffffffffff820361570f5761570e615415565b5b600182019050919050565b600082825260208201905092915050565b7f5265656e7472616e637947756172643a207265656e7472616e742063616c6c00600082015250565b6000615761601f8361571a565b915061576c8261572b565b602082019050919050565b6000602082019050818103600083015261579081615754565b9050919050565b60006060820190506157ac60008301866151a7565b6157b960208301856151a7565b6157c66040830184614dd9565b949350505050565b6157d7816150d4565b81146157e257600080fd5b50565b6000815190506157f4816157ce565b92915050565b6000602082840312156158105761580f614d6c565b5b600061581e848285016157e5565b91505092915050565b600061583282614dcf565b915061583d83614dcf565b9250828210156158505761584f615415565b5b828203905092915050565b600060408201905061587060008301856151a7565b61587d6020830184614dd9565b9392505050565b7f6e6f74206f6e6c79416c6c6f776564436f6e7472616374730000000000000000600082015250565b60006158ba60188361571a565b91506158c582615884565b602082019050919050565b600060208201905081810360008301526158e9816158ad565b9050919050565b6000819050919050565b6000819050919050565b600061591f61591a615915846158f0565b6158fa565b614dcf565b9050919050565b61592f81615904565b82525050565b600060408201905061594a60008301856151a7565b6159576020830184615926565b9392505050565b7f4f776e61626c653a206e6577206f776e657220697320746865207a65726f206160008201527f6464726573730000000000000000000000000000000000000000000000000000602082015250565b60006159ba60268361571a565b91506159c58261595e565b604082019050919050565b600060208201905081810360008301526159e9816159ad565b9050919050565b7f4f776e61626c653a2063616c6c6572206973206e6f7420746865206f776e6572600082015250565b6000615a2660208361571a565b9150615a31826159f0565b602082019050919050565b60006020820190508181036000830152615a5581615a19565b9050919050565b7f4e487b7100000000000000000000000000000000000000000000000000000000600052603160045260246000fdfea26469706673582212207c62aad7e0cadcd6e3a0be7c9784273d54e389282e2739f8a43338659ad9e57e64736f6c634300080f0033",
  "devdoc": {
    "kind": "dev",
    "methods": {
      "owner()": {
        "details": "Returns the address of the current owner."
      },
      "renounceOwnership()": {
        "details": "Leaves the contract without owner. It will not be possible to call `onlyOwner` functions anymore. Can only be called by the current owner. NOTE: Renouncing ownership will leave the contract without an owner, thereby removing any functionality that is only available to the owner."
      },
      "transferOwnership(address)": {
        "details": "Transfers ownership of the contract to a new account (`newOwner`). Can only be called by the current owner."
      }
    },
    "version": 1
  },
  "userdoc": {
    "kind": "user",
    "methods": {
      "constructor": {
        "notice": "Main  Functions   ///"
      },
      "getTokenTotalSupply(address)": {
        "notice": "getter functions   ///"
      }
    },
    "version": 1
  },
  "storageLayout": {
    "storage": [
      {
        "astId": 227,
        "contract": "contracts/Stark.sol:Stark",
        "label": "_status",
        "offset": 0,
        "slot": "0",
        "type": "t_uint256"
      },
      {
        "astId": 111,
        "contract": "contracts/Stark.sol:Stark",
        "label": "_owner",
        "offset": 0,
        "slot": "1",
        "type": "t_address"
      },
      {
        "astId": 400,
        "contract": "contracts/Stark.sol:Stark",
        "label": "deployer",
        "offset": 0,
        "slot": "2",
        "type": "t_address"
      },
      {
        "astId": 403,
        "contract": "contracts/Stark.sol:Stark",
        "label": "s_allowedTokens",
        "offset": 0,
        "slot": "3",
        "type": "t_array(t_address)dyn_storage"
      },
      {
        "astId": 406,
        "contract": "contracts/Stark.sol:Stark",
        "label": "s_suppliers",
        "offset": 0,
        "slot": "4",
        "type": "t_array(t_address)dyn_storage"
      },
      {
        "astId": 409,
        "contract": "contracts/Stark.sol:Stark",
        "label": "s_borrowers",
        "offset": 0,
        "slot": "5",
        "type": "t_array(t_address)dyn_storage"
      },
      {
        "astId": 412,
        "contract": "contracts/Stark.sol:Stark",
        "label": "s_allowedContracts",
        "offset": 0,
        "slot": "6",
        "type": "t_array(t_address)dyn_storage"
      },
      {
        "astId": 416,
        "contract": "contracts/Stark.sol:Stark",
        "label": "s_lastTimeStamp",
        "offset": 0,
        "slot": "7",
        "type": "t_uint256"
      },
      {
        "astId": 460,
        "contract": "contracts/Stark.sol:Stark",
        "label": "s_totalSupply",
        "offset": 0,
        "slot": "8",
        "type": "t_mapping(t_address,t_uint256)"
      },
      {
        "astId": 466,
        "contract": "contracts/Stark.sol:Stark",
        "label": "s_supplyBalances",
        "offset": 0,
        "slot": "9",
        "type": "t_mapping(t_address,t_mapping(t_address,t_uint256))"
      },
      {
        "astId": 472,
        "contract": "contracts/Stark.sol:Stark",
        "label": "s_borrowedBalances",
        "offset": 0,
        "slot": "10",
        "type": "t_mapping(t_address,t_mapping(t_address,t_uint256))"
      },
      {
        "astId": 478,
        "contract": "contracts/Stark.sol:Stark",
        "label": "s_lockedBalances",
        "offset": 0,
        "slot": "11",
        "type": "t_mapping(t_address,t_mapping(t_address,t_uint256))"
      },
      {
        "astId": 483,
        "contract": "contracts/Stark.sol:Stark",
        "label": "s_priceFeeds",
        "offset": 0,
        "slot": "12",
        "type": "t_mapping(t_address,t_contract(AggregatorV3Interface)84)"
      },
      {
        "astId": 488,
        "contract": "contracts/Stark.sol:Stark",
        "label": "s_supplierUniqueTokens",
        "offset": 0,
        "slot": "13",
        "type": "t_mapping(t_address,t_array(t_address)dyn_storage)"
      },
      {
        "astId": 493,
        "contract": "contracts/Stark.sol:Stark",
        "label": "s_borrowerUniqueTokens",
        "offset": 0,
        "slot": "14",
        "type": "t_mapping(t_address,t_array(t_address)dyn_storage)"
      },
      {
        "astId": 499,
        "contract": "contracts/Stark.sol:Stark",
        "label": "s_guarantys",
        "offset": 0,
        "slot": "15",
        "type": "t_mapping(t_address,t_mapping(t_address,t_bool))"
      },
      {
        "astId": 2462,
        "contract": "contracts/Stark.sol:Stark",
        "label": "s_allowedBalances",
        "offset": 0,
        "slot": "16",
        "type": "t_mapping(t_address,t_mapping(t_address,t_uint256))"
      },
      {
        "astId": 2467,
        "contract": "contracts/Stark.sol:Stark",
        "label": "s_lenders",
        "offset": 0,
        "slot": "17",
        "type": "t_mapping(t_address,t_array(t_address)dyn_storage)"
      }
    ],
    "types": {
      "t_address": {
        "encoding": "inplace",
        "label": "address",
        "numberOfBytes": "20"
      },
      "t_array(t_address)dyn_storage": {
        "base": "t_address",
        "encoding": "dynamic_array",
        "label": "address[]",
        "numberOfBytes": "32"
      },
      "t_bool": {
        "encoding": "inplace",
        "label": "bool",
        "numberOfBytes": "1"
      },
      "t_contract(AggregatorV3Interface)84": {
        "encoding": "inplace",
        "label": "contract AggregatorV3Interface",
        "numberOfBytes": "20"
      },
      "t_mapping(t_address,t_array(t_address)dyn_storage)": {
        "encoding": "mapping",
        "key": "t_address",
        "label": "mapping(address => address[])",
        "numberOfBytes": "32",
        "value": "t_array(t_address)dyn_storage"
      },
      "t_mapping(t_address,t_bool)": {
        "encoding": "mapping",
        "key": "t_address",
        "label": "mapping(address => bool)",
        "numberOfBytes": "32",
        "value": "t_bool"
      },
      "t_mapping(t_address,t_contract(AggregatorV3Interface)84)": {
        "encoding": "mapping",
        "key": "t_address",
        "label": "mapping(address => contract AggregatorV3Interface)",
        "numberOfBytes": "32",
        "value": "t_contract(AggregatorV3Interface)84"
      },
      "t_mapping(t_address,t_mapping(t_address,t_bool))": {
        "encoding": "mapping",
        "key": "t_address",
        "label": "mapping(address => mapping(address => bool))",
        "numberOfBytes": "32",
        "value": "t_mapping(t_address,t_bool)"
      },
      "t_mapping(t_address,t_mapping(t_address,t_uint256))": {
        "encoding": "mapping",
        "key": "t_address",
        "label": "mapping(address => mapping(address => uint256))",
        "numberOfBytes": "32",
        "value": "t_mapping(t_address,t_uint256)"
      },
      "t_mapping(t_address,t_uint256)": {
        "encoding": "mapping",
        "key": "t_address",
        "label": "mapping(address => uint256)",
        "numberOfBytes": "32",
        "value": "t_uint256"
      },
      "t_uint256": {
        "encoding": "inplace",
        "label": "uint256",
        "numberOfBytes": "32"
      }
    }
  }
}